:020000040000FA
:100000000C94FB000C9425010C9425010C94250103
:100010000C9425010C9425010C9425010C942501C8
:100020000C9425010C944E0F0C9425010C94250181
:100030000C9425010C94EB1F0C9425010C942501C4
:100040000C9425010C9425010C942A450C9425014F
:100050000C9425010C9425010C9425010C94250188
:100060000C9425010C9425010C94B23B0C942501B1
:100070000C9413480C9449480C9425010C942501C8
:100080000C9419100C9425010C9425011E011B01E0
:100090001801150112010F010C01090106010301EC
:1000A0000001FD003601330130012D012A01270135
:1000B00024012101750171016D0169016501610171
:1000C0005D015901550151014D01490145014101B0
:1000D0003D013901E500E200E900ED00F900F5001D
:1000E000F100484800432F4F004652450053594EF7
:1000F0000045585000534C56004D535400204200C8
:1001000041230020410047230020470046230020D0
:1001100046002045004423002044004323002043A0
:10012000002B34002B33002B32002B31002B3000FE
:100130002D31002D32002D3300204F480020434840
:10014000004558540041434300204D5400204C5476
:100150000020534400204244004352480052494486
:10016000002020200048434C0052494D00204854B4
:100170000020202000545247000000000203000A23
:100180000B0000000005040908000000000000004A
:1001900000000000000000000001020408102040E0
:1001A0008001020408102040800102040810204051
:1001B00080010204081020408002020202020202B2
:1001C00002040404040404040403030303030303F8
:1001D00003010101010101010100002200250028A5
:1001E000002B0000002100240027002A00001E2010
:1001F000193F6B437D4811241FBECFEFD0E4DEBF13
:10020000CDBF13E0A0E0B1E0E2E3F7E900E00BBF0F
:1002100002C007900D92AE3DB107D9F728E1AEEDCF
:10022000B3E001C01D92AD35B207E1F710E0CBEFAE
:10023000D0E004C02197FE010E94C14AC73FD10708
:10024000C9F70E942C4A0C94974B0C94000081E053
:1002500080937504089581E080937404089581E08B
:1002600080937304089581E191E190932812809323
:1002700027124091CA0C29EC31E0429FC001439FF4
:10028000900D11248C56914FFC01EB58FF4F2FE736
:10029000208334962EE12083349620838F579F4FFE
:1002A000FC012083089520912017222359F021304A
:1002B00061F42DB320931E173DB320911F17209595
:1002C00023232DBB8CBD9DBD08952FB7F89420939B
:1002D0001E17F8CF8EBD00000DB407FEFDCF8EB502
:1002E000089590912017992339F080911E1791302D
:1002F00011F48DBB08958FBF0895FC011482138201
:1003000081E06115710509F480E08083918189178E
:1003100041F09281911107C0672B11F091E0938316
:10032000828381830895672BD9F791E09483F8CF76
:100330008F929F92AF92BF92CF92DF92EF92FF92F5
:10034000CF93DF936091131470911414882361F09C
:10035000CB01DF91CF91FF90EF90DF90CF90BF90D6
:10036000AF909F908F9008952091160430911704BC
:10037000E5E5F3E150E040E0B1E0812C912C54013F
:1003800083941382EB01042E02C0D695C7950A947C
:10039000E2F78C2F817080839181891769F09281B7
:1003A00091110AC0C0FF08C0B38396819F5F9683F6
:1003B000913079F09230D1F081834F5F5F4F3B965F
:1003C00040315105F1F63093170420931604B9011A
:1003D000BFCF75016401042E04C0CC0CDD1CEE1CE3
:1003E000FF1C0A94D2F72C293D29E6CF168275010D
:1003F0006401042E04C0CC0CDD1CEE1CFF1C0A940E
:10040000D2F7C094D0942C213D21D6CF2F923F9289
:100410004F925F926F927F928F929F92AF92BF9214
:10042000CF92DF92EF92FF920F931F93CF93DF93C0
:1004300000D000D01F92CDB7DEB7209013143090BB
:1004400014147090C90C6091F5010AEF060F0B832C
:1004500014EF160F1C83209132122A83A62FB0E0CE
:10046000E5E5F3E17091CA0C29EC31E0729FA0013F
:10047000739F500D11249D0174E0220F331F7A9554
:10048000E1F7420F531F4C56514F30E020E071E02E
:10049000C12CD12C7601C3948D0107551E4F480104
:1004A0008D0107561E4F5801022F1382D101022ED3
:1004B00002C0B695A7950A94E2F71A2F1170198316
:1004C00010836180161539F16280611022C0A0FF8F
:1004D00020C07383DC01022E02C0B695A7950A9452
:1004E000E2F7A170BB276F3041F01B81123028F07A
:1004F0001C81123010F0611143C0AB2B61F1A2E0FE
:10050000A683A681A13049F1A23009F4B4C07724B2
:100510007394B981B1832F5F3F4F3B9620313105F2
:1005200019F67092C90C0F900F900F900F900F90CA
:10053000DF91CF911F910F91FF90EF90DF90CF90BF
:10054000BF90AF909F908F907F906F905F904F90F3
:100550003F902F9008957683D4CF2601370104C0B1
:10056000440C551C661C771C0A95D2F784299529E2
:10057000D901AB5BBF4F3D01640E751ED40171C044
:100580001A81112309F442C0AB2BB1F1D901AB5B45
:10059000BF4FA40FB51FAC91A7FF2BC01A2F1F7719
:1005A000D5017C90711610F5B3E0B683A681A23018
:1005B00029F1A33009F45FC0A13009F0A8CF2601CA
:1005C000370104C0440C551C661C771C0A95D2F7F1
:1005D00084299529D901AB5BBF4F3D01640E751E7F
:1005E000D5010C910058D3010C9391CF12E01683E2
:1005F000DDCFA3E0A683DACF7683D8CFD901AB5B7A
:10060000BF4F3D01640E751ED401EBCFAB2B89F1BA
:10061000D901AB5BBF4FA40FB51F1C9117FD26C0BE
:10062000D5017C907116F8F4B3E0B683A681A230B0
:1006300009F49ECFA330F9F0A13009F068CF26016C
:10064000370104C0440C551C661C771C0A95D2F770
:1006500084299529D901AB5BBF4F3D01640E751EFE
:10066000D5010C91C0CF12E01683E0CFA3E0A683A2
:10067000DDCF7683DBCF16822601370104C0440C20
:10068000551C661C771C0A95D2F74094509484211F
:1006900095213DCF4F925F926F927F928F929F9262
:1006A000AF92BF92CF92DF92EF92FF920F931F9380
:1006B000CF93DF93E0917212F0917312F093711265
:1006C000E0937012A0911314B0911414B0937312AC
:1006D000A0937212EA17FB0709F490C080919E0C58
:1006E00090919F0C20914A1230914B1270904912B8
:1006F0004091C601AA24A394B12C450102C0880CE4
:10070000991C4A95E2F740901502509016024091CC
:10071000C50102C0AA0CBB1C4A95E2F70091130266
:100720001091140240917712442309F481C0A094DF
:10073000B0948094909450E040E0EE24E394F12C47
:10074000C9ECCC2EC1E0DC2EBD01042E02C0769592
:1007500067950A94E2F760FF43C0BF01042E02C010
:10076000769567950A94E2F760FD3AC09A0127549E
:100770003E4FE90168809701062C02C0220F331F0B
:100780000A94E2F7209530958223932329EB31E0F8
:10079000E90169919E01661649F0E70102C0CC0F9C
:1007A000DD1F6A95E2F7BE018C2B972BC216D3068C
:1007B00079F79A01220F331F25503E4FE9016881D6
:1007C00079819B0120953095772051F0DCE04D1325
:1007D00026C0882199219B0124293529209530950F
:1007E0004F5F5F4F4031510509F0AECF90939F0CA2
:1007F00080939E0C30934B1220934A12DF91CF913D
:100800001F910F91FF90EF90DF90CF90BF90AF902E
:100810009F908F907F906F905F904F900895CDE064
:100820004C13DECF8A219B219B01202B312BD6CF6D
:1008300050E040E0EE24E394F12CBD01042E02C010
:10084000769567950A94E2F760FF2AC0BF01042EEF
:1008500002C0769567950A94E2F760FD21C0BA015F
:1008600067547E4FEB016881E70102C0CC0FDD1FAA
:100870006A95E2F7BE018C279727BA01660F771FAA
:1008800065507E4FEB0168817981262737277720D5
:1008900039F0DCE04D130AC088259925242535253B
:1008A0004F5F5F4F4031510541F6A0CF6DE04613D9
:1008B000F7CF8A259B2520273127F2CF0F931F934F
:1008C000CF93DF9360916E1270916F1270936D12DF
:1008D00060936C12E0911314F0911414F0936F1262
:1008E000E0936E126E177F0709F441C04091300407
:1008F00050913104209132043091330490E080E033
:10090000C1E0D0E0DF01082E02C0B695A7950A9499
:10091000E2F7A0FF20C0DB01082E02C0B695A79524
:100920000A94E2F7A0FD17C0DC01A754BE4FAC91BA
:100930008E0102C0000F111FAA95E2F7D8014027CF
:100940005B27DC01AA0FBB1FA550BE4F0D90BC91C9
:10095000A02D2A273B2701968031910599F65093C7
:100960003104409330043093330420933204DF91F8
:10097000CF911F910F91089581E00E94980130E07E
:1009800020E0AC01022E02C0569547950A94E2F78A
:1009900040FF02C0822F08952F5F3F4F2031310565
:1009A00081F7089581E00E949801AC0130E020E0D9
:1009B00090E0BA01022E02C0769567950A94E2F79C
:1009C00060FF05C0913011F4822F089591E02F5FF0
:1009D0003F4F2031310569F780E00895E5E5F3E107
:1009E00016823B9684E1E530F807D1F71092451363
:1009F00010922F131092241310923A131092B612E1
:100A0000089581110C94330110922812109227122C
:100A10004091CA0C29EC31E0429FC001439F900DE8
:100A200011248C56914FFC01EB58FF4F20E5208399
:100A300034962083349620838F579F4FFC01208368
:100A4000089584B1886D84B98AB1806F8AB981B103
:100A50008C6E81B9129A61E088E10E94714661E072
:100A600089E10E94714661E08AE10E94714660E07E
:100A70008BE10E94714660E080E00E94714660E078
:100A800081E00E9471460E9474428FEF0E948A4268
:100A900081E297E10C9431430F931F930E947445B8
:100AA0000091051410910614209107143091081438
:100AB000601B710B820B930B6630710581059105EC
:100AC00008F44BC00E94744560930514709306149B
:100AD000809307149093081480917E0490917F0472
:100AE0000E9453015C9A80E00E946A01809309147D
:100AF00080E00E946A0180930B1480E00E946A01EA
:100B000080930D1480E00E946A0180930F1480E0AE
:100B10000E946A01809311145C980E94710183B154
:100B200082FB882780F980937904E9E0F4E130E0E2
:100B300020E090814181941304C0D901AD5EBB4E89
:100B40009C932F5F3F4F32962530310591F790915E
:100B50007A04891302C08093780480917E04909176
:100B60007F040E9453015C9A80E00E946A01809396
:100B70000A1480E00E946A0180930C1480E00E94B5
:100B80006A0180930E1480E00E946A018093101421
:100B900080E00E946A01809312145C980E947101A7
:100BA00083B182FB882780F980937A041F910F918B
:100BB00008950F931F93CF93DF930E944C05C0912C
:100BC0001514D091161410911714C4FB882780F9BE
:100BD00080937812C3FB882780F9809377126C2F5B
:100BE000647070E089E792E10E947D016D2F68706A
:100BF00070E084E892E10E947D016D2F607870E0E2
:100C00008FE892E10E947D016D2F607470E083E1B6
:100C100093E10E947D016D2F607270E088E093E1A6
:100C20000E947D016C2F607870E08AE493E10E945D
:100C30007D016C2F617070E08FE393E10E947D0174
:100C40006D2F607170E089E293E10E947D016C2F4D
:100C5000627070E08EE193E10E947D016C2F607400
:100C600070E081ED92E10E947D01C0726C2F70E016
:100C700082EF92E10E947D016D2F647070E086EC3E
:100C800092E10E947D016D2F627070E08BEB92E12A
:100C90000E947D01612F627070E08DEF92E10E94F1
:100CA0007D016D2F617070E08CED92E10E947D01FD
:100CB000612F617070E080EB92E10E947D01612FF5
:100CC000647070E085EA92E10E947D016091780491
:100CD00070E084E393E10E947D01609113147091B0
:100CE00014148AE992E10E947D011092EB12109295
:100CF000EA1281E0912F987013FF80E08093E71251
:100D00002091E812821711F18091E91281110FC030
:100D1000992369F081E08093EA120E947445609300
:100D2000EE127093EF128093F0129093F112809173
:100D3000E7129091E912992339F0811105C091E0F1
:100D40009093EB121092EC128093E9128091E712CB
:100D50008093E8128091E9128823B1F00E947445D3
:100D60000091EE121091EF122091F0123091F112D9
:100D7000601B710B820B930B693E734081059105DB
:100D800018F081E08093EC12E5E5F3E11382148220
:100D90003B9684E1E530F807C9F7DF91CF911F91C9
:100DA0000F910895FF920F931F93CF93DF93082F16
:100DB000F92ED62F172FC42F80917E0490917F0497
:100DC0000E9453012C988F2D0E946A01802F0E944F
:100DD0006A01812F0E946A018D2F0E946A018C2F67
:100DE0000E946A012C9ADF91CF911F910F91FF9081
:100DF0000C947101CF93DF93EC0180917E0490916C
:100E00007F040E9453012B988D2F0E946A018C2F22
:100E10000E946A012B9A0E947101D093990CC09391
:100E2000980CDF91CF910895CF93DF93803808F02D
:100E30008FE790E2899FE0011124D06180917E04C8
:100E400090917F040E9453015D988D2F0E946A014A
:100E50008C2F0E946A015D9ADF91CF910C947101F1
:100E600080918004909181040E9453015C9A80E0FB
:100E70000E946A0180E00E946A0180E00E946A018B
:100E800080934A0480E00E946A0180E00E946A0127
:100E9000809349045C980C9471010F931F93CF9336
:100EA000C82F80914804882361F00E9474456093A4
:100EB00012047093130480931404909315041092F9
:100EC00048040E947445009112041091130420916B
:100ED000140430911504AB01BC01401B510B620B93
:100EE000730B8C2F90E0B0E0A0E0481759076A0719
:100EF0007B0738F0129905C080914804811101C028
:100F0000129ACF911F910F91089523B121702093D0
:100F10007D0433B1327030937C04211108C04091BC
:100F20007B04442321F0332329F0860F971F20935D
:100F30007B04089530917812332389F0309177043F
:100F4000313049F010F0323091F78A3091057CF35E
:100F5000861B970BECCF80319105D4F7E8CF009733
:100F6000B9F7E5CF0F931F93CF93DF938091B20032
:100F700080933704C2E0D0E001E010E098010C2E2D
:100F800002C0220F331F0A94E2F78091980C9091CF
:100F9000990C82239323892BF1F080913704FE0171
:100FA000E85CFB4F9081891B8032A8F08091980CFF
:100FB0009091990C20953095822393230E94FA06F4
:100FC0008091980C9091990C8D7F892B21F410922F
:100FD0006B1210926A122196CC30D10579F6DF910E
:100FE000CF911F910F910895809147128111DDC01B
:100FF0000E944C058091151483FB882780F980930B
:10100000771260911614607170E089E293E10E949A
:101010007D0160911714647070E085EA92E10E948E
:101020007D0160911714617070E080EB92E10E9485
:101030007D0160911714627070E08DEF92E10E9463
:101040007D0160911514617070E08FE393E10E945F
:101050007D016091780470E084E393E10E947D015A
:101060008091A8128823D9F080915812882309F41E
:1010700062C081E0809359121092581280915912E7
:1010800041E060E0882309F45DC088E194E00E94BB
:1010900027446FE272E088E194E00E94E648809184
:1010A000B3128823D9F080915912882309F451C0D2
:1010B0001092591281E0809358128091581241E0A9
:1010C00060E0882309F44AC088E194E00E94274444
:1010D00061E572E088E194E00E94E64880912C137B
:1010E000882339F081E090913404911180E080935D
:1010F0003404809158128823C1F10E944A038091E0
:101100004213882351F080919E0C90919F0C21E016
:10111000822790939F0C80939E0C80913613882396
:1011200009F443C010929F0C10929E0C10924B1227
:1011300010924A1208958091591291E08927809364
:1011400059129CCF88E194E00E94274460E472E049
:10115000A2CF8091581291E08927ADCF88E194E029
:101160000E94274460E472E0B5CF80915912882331
:10117000E1F00E945E0480914213882351F0809137
:1011800030049091310421E08227909331048093C0
:10119000300480913613882341F01092310410926C
:1011A0003004109233041092320408955091591271
:1011B000E0915812809148126091340470E0762FCB
:1011C00066277295707F782B852F90E0982F88275F
:1011D0009295990F907E682B792B8E2F90E090E45A
:1011E000899F902D88271124682B792B8091FF12DD
:1011F00090914712892B90E099278695979588279B
:10120000682B792B7093641260936312409165127E
:1012100020916A1230916B12EE2321F190919E0C75
:101220009170492B80914A1290914B12822B932BF3
:101230000E94D20682B182FB882780F991E089273B
:1012400090913404892390917712990F892B809380
:10125000651280916A1290916B129093360480937C
:1012600035040895C901552319F390913004917004
:10127000492B8091320490913304D8CF60E472E01E
:1012800088E194E00C94E6480F931F93CF93DF938B
:10129000D0E0C0E0082F10E0C017D1073CF461EAAD
:1012A00088E194E00E94EE482196F6CFDF91CF913D
:1012B0001F910F91089540E064E088E194E00E945E
:1012C000274462E672E088E194E00C94E64840E04E
:1012D00060E088E194E00E9427446BE672E088E1D8
:1012E00094E00E94E64841E060E088E194E00E94DA
:1012F00027440E943E0941E060E088E194E00E94BA
:1013000027446CE772E088E194E00E94E64841E0FF
:1013100061E088E194E00E9427448EE00E94440945
:1013200041E06FE088E194E00E9427446EE772E0BC
:1013300088E194E00E94E6482091CA0C89EC91E093
:10134000289FF001299FF00D1124E45AFF4E60817F
:101350006F5F41E088E194E00E9427446BED88E1F3
:1013600094E00C94EE4840E060E088E194E00E9454
:10137000274460E872E088E194E00E94E64841E09A
:1013800060E088E194E00E9427440E943E0941E029
:1013900060E088E194E00E94274461E972E088E11E
:1013A00094E00C94E64840E060E088E194E00E941C
:1013B000274462EA72E088E194E00E94E64841E056
:1013C00060E088E194E00E9427440E943E0941E0E9
:1013D00060E088E194E00E94274463EB72E088E1DA
:1013E00094E00C94E6482F923F924F925F926F9256
:1013F0007F928F929F92AF92BF92CF92DF92EF92A5
:10140000FF920F931F93CF93DF9380917712809376
:101410005512409178124093561260917B1260935E
:1014200054125091F4125093531220912013209390
:101430005212E091D312E0935112982F990F84E049
:10144000489F80011124A8E06A9FB0011124B0E1F7
:101450005B9FE001112480E2E89FF0011124A0E4E9
:101460002A9F90011124A0913512892F802BAA2345
:1014700009F4F9C08068862B8C2B8E2B822B8093ED
:1014800065128091F6019091F7018130910509F480
:10149000F6C0D1E0009709F0D0E0D093611283301C
:1014A000910509F4EFC0E1E08230910509F0E0E038
:1014B000E0935D12F09115138430910511F4F091D1
:1014C0001D02F0935C1220918304222309F4DDC0F5
:1014D00021E02093601220935F1230910A13309321
:1014E0005B127091241301E010E002C0000F111F85
:1014F0007A95E2F70093501221E060912F13611169
:1015000001C020E020935A12B091F501833091057B
:1015100031F4BD3021F420911D0220935A12C09164
:10152000A712C0935912442319F021E0BC3079F07E
:101530002091C60C211109C020918A04211105C0F7
:1015400020914812222309F4A7C020911D02209364
:101550004F128530910509F0A2C021E02093581266
:1015600020914712222309F49DC020911D0220934F
:1015700057126091601220E4629FB0011124E09044
:101580005F1220E8E29E700111246E297F292091CC
:101590005E12622B20914F12722B232F30E0322FDC
:1015A0002227330F330F330F262B372B60915A121C
:1015B00070E0762F66277295707F262B372BEC2EE6
:1015C000F12C60E2E69EF02CEE2411242E293F2916
:1015D0006091581270E070E4679F702D66271124A7
:1015E000262B372B6091571270E0772766957795F9
:1015F0006627622B732B000F111F0E7F1170602B5B
:10160000712B10E2D19F90011124622B732B2E2F8E
:1016100030E0322F2227330F622B732B2F2F30E035
:10162000322F2227330F330F622B732B70936412E8
:1016300060936312B03108F03EC0EB2FF0E0ED5D37
:10164000F44F0C94C14A9D0B5B0B8B0B8E0B910BD3
:101650005B0B970B9A0B550B820B850B880B9D0B25
:101660009D0B940B940B90911D028160862B8C2B0B
:101670008E2B822B979599279795892B00CFD09108
:101680001D020BCFE0911D0213CF2091C8122093B1
:1016900060122091BD121FCF10924F125ACF10929C
:1016A00058125ECF2091FF1262CF23E030E03093DA
:1016B0004E1220934D128230910509F49EC008F01D
:1016C00041C0009709F457C08130910509F46BC0FF
:1016D0004091651280916A1290916B12DF91CF91C7
:1016E0001F910F91FF90EF90DF90CF90BF90AF9040
:1016F0009F908F907F906F905F904F903F902F9032
:101700000C94D2062CE030E0D2CF20E330E0CFCFF3
:1017100020EC30E0CCCF20E033E0C9CF20E034E053
:10172000C6CF20E038E0C3CF20E030E3C0CF20E0D8
:1017300030E8BDCF20E030E4BACF10924E121092C4
:101740004D12B9CF8530910508F4D1C0059709F045
:10175000BFCF80914A1290914B1290936B1280935D
:101760006A1280913613882309F4B2CF10924B127B
:1017700010924A12ADCF30918E04AA23A9F1209184
:101780001C024091391281E090E002C0880F991F3D
:101790003A95E2F730E002C0220F331F4A95E2F794
:1017A000822793270BC0CC2371F02091311281E066
:1017B00090E002C0880F991F2A95E2F790936B1270
:1017C00080936A1285CF2091DE12222319F0209196
:1017D0008E04EFCF309130123F70AA2329F0209170
:1017E0001C0240913912D1CF80911D0290E002C0BD
:1017F000880F991F3A95E2F7E1CFC111D6CF20911A
:10180000C00CB0912F12BF70A1112EC030E04091DA
:10181000C10C4F7090E080E0F0E0E0E050E0812CFF
:10182000912C54018394EC01C40FD51F7501640100
:1018300004C0CC0CDD1CEE1CFF1CCA95D2F7EC29B1
:10184000FD2901962817390774F780911D0291E050
:10185000892790E002C0880F991FBA95E2F780951A
:1018600090958E239F23AACF2223A1F14091C10CF2
:101870004F7090E080E0F0E0E0E030E050E0812C5C
:10188000912C540183942817390784F0EC01C40F7C
:10189000D51F7501640104C0CC0CDD1CEE1CFF1CBF
:1018A000CA95D2F7EC29FD290196EDCF80911D0252
:1018B00020911C024091391291E09827892F90E0E5
:1018C00002C0880F991FBA95E2F7809590958E23F4
:1018D0009F2360CF80911D0220911C0240913912FC
:1018E00090E002C0880F991FBA95E2F753CF4423C6
:1018F00011F180914C1220914D1230914E1288308E
:1019000038F030936B1220936A1210924C12E0CE92
:10191000BF3051F425753D7F30936B1220936A12CE
:101920008F5F80934C12D4CE909132129111F4CFEC
:1019300025753D7DF1CF552361F180914C128830A2
:1019400038F08FE79FEF90936B1280936A12DDCF90
:101950009091CA0C29EC31E0929FF001939FF00D19
:101960001124EC56F14F43814150550B21E030E0FA
:10197000D90102C0AA0FBB1F4A95E2F7AD019481BD
:10198000985F02C0220F331F9A95E2F72A2B352B5E
:10199000C3CFAA2309F4B7C08B2F90E00091321275
:1019A0004091CA0C5C0124E0AA0CBB1C2A95E1F70B
:1019B00029EC31E0429FF001439FF00D1124AE0E5F
:1019C000BF1EB0E0A0E050E040E030E020E0C12CDD
:1019D000D12C7601C394EC01CC0FDD1FCE0FDF1F9D
:1019E000C756D14FFC01E756FE4F1F01C9018A0DB2
:1019F0009B1D8752914FFC011081002309F444C0C4
:101A000017FF5EC088819981022E02C09695879546
:101A10000A94E2F7817099271F77F101908091165F
:101A200008F03FC0892B61F026013701022E04C067
:101A3000440C551C661C771C0A94D2F7442955297E
:101A40002F5F3F4F2031310589F650936912409343
:101A50006812B0936712A093661220914C12809185
:101A60001C022330F0F12091391290E002C0880F5F
:101A7000991F2A95E2F7A827B9274A2B5B2B509389
:101A80006B1240936A1241CF17FD1AC08881998169
:101A9000022E02C0969587950A94E2F781709927E5
:101AA000BCCF892B69F226013701022E04C0440CF9
:101AB000551C661C771C0A94D2F7A429B529C0CFFF
:101AC00026013701022E04C0440C551C661C771CED
:101AD0000A94D2F74094509444215521A421B52171
:101AE000AFCF3091391290E002C0880F991F3A951C
:101AF000E2F74827592750936B1240936A122F5FE1
:101B000020934C12E5CDC11150CEA091C00CB0E095
:101B10009091C10C9F7050E040E0F0E0E0E0292F90
:101B200030E0812C912C54018394CA01820F931FC1
:101B30007501640104C0CC0CDD1CEE1CFF1C8A95F1
:101B4000D2F7EC29FD294F5F5F4FA417B5076CF75B
:101B500080911D0291E0892790E0209130122F7032
:101B600002C0880F991F2A95E2F779CE109275046A
:101B700010927404109273040895645F282F40E05B
:101B80008CEE94E10C94B13F809176048823B1F1FE
:101B900010927604909136122091CA0C30E0809118
:101BA00040129923A9F0E091361269EC71E0269F6A
:101BB000A001279F500D369F500D11244C56514FB8
:101BC000E40FF52FF11DEC5BFE4F60810C94BD0D11
:101BD00049EC51E0249FF001259FF00D349FF00D5A
:101BE00011249F012C56314FF901EB53FE4FE08138
:101BF000E20FF32FF11DEB5BFE4FE7CF0895645F1B
:101C0000282F8CEE94E10C94A73F63E170E28CEEF8
:101C100094E10E94813D67E271E08CEE94E10E94C4
:101C2000873D6BE271E08CEE94E10E94933D6FE2A0
:101C300071E08CEE94E10C948D3D68EF70E08CEED9
:101C400094E10E94993D6AEF70E08CEE94E10E946D
:101C5000993D6CEF70E08CEE94E10E94993D6BEF42
:101C600070E08CEE94E10C94993D6EE473E18CEE9F
:101C700094E10E947B3D69E073E18CEE94E10C9469
:101C8000753D60E970E08CEE94E10E94993D60E85A
:101C900070E08CEE94E10C94993D20913E1240E06E
:101CA0006BE78CEE94E10C94BB3F3F924F925F92B6
:101CB0006F927F928F929F92AF92BF92CF92DF925C
:101CC000EF92FF920F931F93CF93DF934C01D0E0DD
:101CD000C0E0A9EC4A2E55245394BFE63B2EC40124
:101CE0000C2E02C0969587950A94E2F780FF71C08A
:101CF000CE30D10524F080919E0C85FD6EC0CE01C2
:101D00008C5B9E4F3C01FC018081882309F461C0FB
:101D1000E09139128091CA0C849D9001859D300D0F
:101D20001124CE01F4E0880F991FFA95E1F7820F94
:101D3000931F8C56914FE80FF92FF11DEB5BFF4F6E
:101D40008081882309F445C0FE01EF5AFB4F608172
:101D5000CE30D10514F060915F04FE01E755FE4FCF
:101D6000E080F12C10E000E0FE01E756FE4F2081FC
:101D700030E050E040E070E090E080E01F921F9281
:101D80001F923F92EFE5AE2EB12CC12CD12C0E94B8
:101D9000EA49462F209139128091CA0C849DF001A6
:101DA000859DF00D1124EC56F14F858D968D02C066
:101DB000969587952A95E2F70F900F900F900F90C8
:101DC00080FD4FE7F30160816C5080913E120E94CC
:101DD000FF0D90926204809261042196C031D1057A
:101DE00009F07DCFDF91CF911F910F91FF90EF9080
:101DF000DF90CF90BF90AF909F908F907F906F902B
:101E00005F904F903F9008950F931F93CF93DF9370
:101E1000D0E0C0E009EC11E080916104909162048F
:101E20000C2E02C0969587950A94E2F780FF2DC08C
:101E3000CE30D10524F080919E0C85FD26C0FE0198
:101E4000EC5BFE4F6081662301F1E09139128091D5
:101E5000CA0C809F9001819F300D1124CE0144E077
:101E6000880F991F4A95E1F7820F931F8C56914F67
:101E7000E80FF92FF11DEB5BFF4F8081882329F0DC
:101E80006C5080913E120E94BD0D2196C031D1054B
:101E900019F6DF91CF911F910F9108951F920F9224
:101EA0000FB60F9211240BB60F922F933F934F93BF
:101EB0005F936F937F938F939F93AF93BF93EF93B2
:101EC000FF931092B1001092B20080919A0C909101
:101ED0009B0C0E94FA060E94040FFF91EF91BF91A4
:101EE000AF919F918F917F916F915F914F913F91B2
:101EF0002F910F900BBE0F900FBE0F901F90189553
:101F00008FE090E00E94DE455E9885E090E00E94C0
:101F1000DE455E9A0895CF92DF92EF92FF920F9383
:101F20001F93CF93DF93C9E8D1E003E911E0A9EC57
:101F3000EA2EFF24F39480912B1290912C12299178
:101F4000422F50E002C0969587952A95E2F780FFD0
:101F500060C02091CA0C30E0E09139122E9DB00192
:101F60002F9D700D3E9D700D1124CA01F4E0880F65
:101F7000991FFA95E1F7860F971F8C56914FE80F3E
:101F8000F92FF11DEB5BFF4FA081A7FDAF772E9DD1
:101F9000F0012F9DF00D3E9DF00D1124EC56F14FF8
:101FA000658D768D809139126B0102C0D694C794ED
:101FB0008A95E2F7C60190E080FF05C0E853FE4F26
:101FC0009081990F990F4F5A5B4F9A0FFA019083A6
:101FD0008091391202C0769567958A95E2F780E084
:101FE00060FF0CC02E9DF0012F9DF00D3E9DF00D69
:101FF0001124E45AFF4E8081880F880F8A0F0E94B7
:10200000140782B18F71F8019081892B82B90E94E7
:10201000800F0F5F1F4FF1E0CE38DF0709F08BCF45
:10202000DF91CF911F910F91FF90EF90DF90CF90B4
:1020300008951F920F920FB60F9211240BB60F92B4
:102040002F933F934F935F936F937F938F939F93C0
:10205000AF93BF93EF93FF9310929100109295006E
:10206000109294000E948B0F80912B1290912C1251
:1020700040919A0C50919B0C20919E0C30919F0C9A
:102080002095309582239323842B952B0E94FA066A
:1020900080912B1290912C1240919A0C50919B0C94
:1020A00020919E0C30919F0C209530958223932394
:1020B000842B952B0E94550E85E08093B1001092E1
:1020C0002C1210922B12FF91EF91BF91AF919F9123
:1020D0008F917F916F915F914F913F912F910F90D1
:1020E0000BBE0F900FBE0F901F9018958FE090E0E1
:1020F0000E94DE455F9885E090E00E94DE455F9A91
:1021000008954F925F927F928F929F92AF92BF926B
:10211000CF92DF92EF92FF920F931F93CF93DF93B3
:1021200080912D1290912E12C0919E0CD0919F0CF7
:10213000C095D095C823D923FEE8AF2EF1E0BF2E7D
:10214000A3E9CA2EA1E0DA2EB8E98B2EB1E09B2ECE
:10215000860189ECE82EFF24F394D5018D915D0171
:10216000682F70E09E01082E02C0369527950A94CC
:10217000E2F720FD05C0D7FF5EC08E3009F05BC0DE
:102180004091CA0C50E04E9DF0014F9DF00D5E9DB8
:10219000F00D1124EC56F14F258D368DD7FFF3C08D
:1021A0008E3009F0F0C0A0913912AE0FBF2FB11DD3
:1021B000AB5CBE4F9C9180913912B90102C07695FB
:1021C00067958A95E2F780E060FF05C0E853FE4F0F
:1021D0008081880F880F890F80935F04E091391206
:1021E0004E9DC0014F9D900D5E9D900D1124AC0140
:1021F0004C56514FE40FF52FF11DEB5CFE4F9081D3
:102200008091391202C0369527958A95E2F780E0D1
:1022100020FF06C048535E4FFA018081880F880F67
:10222000890F0E94140782B18F7190919501892BBB
:1022300082B90E9476100F5F1F4F8016910609F039
:102240008CCF09E811E0AEE88A2EA1E09A2EB9EC15
:10225000AB2EBB24B394EE24E394F12CF801A191AE
:102260008F016A2F70E0CE010A2E02C096958795E5
:102270000A94E2F780FF70C02091CA0C30E0E09130
:1022800039122A9DA0012B9D500D3A9D500D11240D
:10229000CB01F4E0880F991FFA95E1F7840F951FA1
:1022A0008C56914FE80FF92FF11DEB5BFF4F8081AA
:1022B00087FF11C0E0912B12F0912C12A70102C0F0
:1022C000440F551FAA95E2F74E2B5F2B50932C120B
:1022D00040932B128F772A9DF0012B9DF00D3A9D94
:1022E000F00D1124EC56F14F458D568D9091391219
:1022F000DA0102C0B695A7959A95E2F790E0A0FFA3
:1023000005C0E853FE4F9081990F990F6F5A7B4F8C
:10231000980FDB019C939091391202C05695479516
:102320009A95E2F790E040FF0CC02A9DF0012B9DAA
:10233000F00D3A9DF00D1124E45AFF4E9081990F53
:10234000990F890F0E94140782B18F71F601908155
:10235000892B82B90E94800FFFEFCF1ADF0A801607
:10236000910609F07BCFDF91CF911F910F91FF90E4
:10237000EF90DF90CF90BF90AF909F908F907F9025
:102380005F904F90089570903912CB01E4E0880F70
:10239000991FEA95E1F74E9DD0014F9DB00D5E9DCE
:1023A000B00D1124FC01EA0FFB1FEC56F14FE70DB5
:1023B000F11DEB5BFF4F7080E0913912290102C0E3
:1023C00056944794EA95E2F740FE35C0A45ABF4EB2
:1023D000EC91EE0FEE0F6F5A7B4FE70DDB01EC93A4
:1023E000E09139124E9DB0014F9D700D5E9D700DB4
:1023F0001124860F971F8C56914FE80FF92FF11D6E
:10240000EB5BFF4F90818091391202C03695279582
:102410008A95E2F780E020FF06C0645A7F4EFB01F8
:102420008081880F880F890F0E94140782B18F71F5
:10243000D8019C91FCCEE0E0CECFE82FF0E0EC5A42
:10244000FE4F6083EEEFE80FEE3008F060C0862F9D
:10245000F0E0E35DFD4E0C94C14A5A1261126B121A
:102460008712791280123B1245124C1253128712B6
:102470008712721272120E94140782B18F719091AA
:102480009501892B82B90C94800F0E94140782B1A8
:102490008F7190919401F5CF0E94140782B18F71D2
:1024A00090919301EECF0E94140782B18F719091A9
:1024B0009601E7CF0E94140782B18F719091970126
:1024C000E0CF0E94140782B18F7190919401892B03
:1024D00082B90C9476100E94140782B18F7190918A
:1024E0009301F5CF0E94140782B18F7190919501ED
:1024F000EECF0E94140782B18F7190919701E7CFC0
:102500000E94140782B18F7190919601E0CF0895D7
:10251000EF92FF920F931F93CF93E82EF12C870138
:102520000D591B4FF8019081911139C020919E0CDB
:1025300030919F0C082E02C0369527950A94E2F739
:1025400020FD2DC0C82F0E941D12CF3071F5809143
:10255000980C9091990C8D7D80620E94FA06809172
:10256000B20080933D04809134048823A9F0F701E0
:10257000EC5CFE4F208181E090E002C0880F991F43
:102580002A95E2F72091350430913604822B932B63
:1025900090936B1280936A1281E0F8018083CF914F
:1025A0001F910F91FF90EF900895CE3031F48091FC
:1025B000980C9091990C8262D0CF2091980C309118
:1025C000990C81E090E00E2C02C0880F991F0A94AC
:1025D000E2F7822B932B0E94FA068091B200F7015A
:1025E000E85CFB4F8083BFCFE82FF0E0ED59FB4F55
:1025F00010822091300430913104082E02C03695AB
:1026000027950A94E2F720FF03C060E00C941D12A6
:10261000089590913F12981340C062526B3108F0B8
:102620003CC0E62FF0E0E95EFC4E0C94C14A3D133D
:10263000321332133D1335133F1335133713411340
:102640004D134D13391343133913391347133B13E8
:1026500045134D134D134D134D134D134D134D1382
:102660004D13491388E00C94F41289E0FCCF8AE002
:10267000FACF8BE0F8CF82E0F6CF83E0F4CF84E0AE
:10268000F2CF8EE0F0CF8FE0EECF86E0ECCF87E0A8
:10269000EACF8091300480FD129A0895962F642F1E
:1026A000442309F48CC020913F1228138CC0EEED16
:1026B000E90FE63308F087C0F0E0EF59FC4E0C94C8
:1026C000C14AA21397139713A2139A13A4139A1330
:1026D0009C13A613E313E3139E13A8139E139E13D8
:1026E000AA13A013AC13E313E313E313E313AE1322
:1026F000E313E313E313B013B013B013B013B01329
:10270000B013B013B013E313E313E313E313C213D3
:10271000C213C213C213C213C213C213C213C21311
:10272000C213C213C213C213C213C213C21388E06E
:102730000C94881289E0FCCF8AE0FACF8BE0F8CFC6
:1027400082E0F6CF83E0F4CF84E0F2CF8EE0F0CFEA
:102750008FE0EECF87E0ECCF86E0EACF129A0895C3
:102760009C5390933112809130129295907F682FF4
:102770006F70960F90932F12891729F181E0809343
:10278000C80C08951092C30C609131126295607F5D
:102790006854960F90932F128091CA0C29EC31E067
:1027A000829FF001839FF00D1124E65AFF4E808135
:1027B0008093C20C809130129813E0CF089540E0CE
:1027C000692F0C9409130895CF92DF92EF92FF9234
:1027D0000F931F93CF93DF934091CA0C89EC91E044
:1027E000489F9001499F300D1124F901EC56F14F9B
:1027F00081A192A143A154A1842B952B908B878713
:102800008091F6019091F701049709F458C0109156
:10281000F5010091AE0190E080E0DF019196B39662
:10282000C12CD12C7601C3944D915C911197082E47
:1028300002C0569547950A94E2F740FF14C01E3037
:1028400091F4B701A601082E04C0440F551F661F5E
:10285000771F0A94D2F74095509560817181462385
:1028600057235183408340815181082E02C05695E1
:1028700047950A94E2F740FF1DC01F30D9F4B70115
:10288000A601082E04C0440F551F661F771F0A9427
:10289000D2F7409550956D917C911197462357231F
:1028A00011965C934E93AC01420F531F4754504F07
:1028B000EA01088301968031910509F0B5CFDF91D7
:1028C000CF911F910F91FF90EF90DF90CF900895DF
:1028D0002091CA0C30E0E0EDFCE089EC91E0289F0B
:1028E000A001299F500D389F500D11244C56514F77
:1028F00090E080E0DA01A80FB91F15966D917C91E8
:1029000061937193029680329105A1F789EC91E071
:10291000289FF001299FF00D389FF00D1124EC56EF
:10292000F14F80818093CB0C81818093CC0C83818B
:102930008093CE0C84818093CF0CDF01AB53BE4FCC
:102940006C916093900EE853FE4F80818093930EBC
:10295000A0E1BEE090E080E0861748F4FC01EB5B6C
:10296000FE4FE40FF51F70817D930196F5CF49EC82
:1029700051E0249FC001259F900D349F900D11249C
:102980008C56914F2BEC3CE050E040E0BA016B5B81
:102990007F4FF901E60FF71F680F791FDB016C917C
:1029A00060834F5F5F4F4031510581F74096205F54
:1029B0003F4FBDE02B3C3B0739F708952091CA0CEF
:1029C00030E0E0EDFCE089EC91E0289FA001299F38
:1029D000500D389F500D11244C56514F90E080E01F
:1029E00061917191DA01A80FB91F16967C936E93CD
:1029F000159702968032910599F789EC91E0289F0E
:102A0000F001299FF00D389FF00D1124EC56F14F85
:102A10008091CB0C80838091CC0C81838091CE0CF3
:102A200083838091CF0C84836091900EDF01AB5340
:102A3000BE4F6C93E853FE4F8091930E8083A0E1CC
:102A4000BEE090E080E0861748F47D91FC01EB5BEE
:102A5000FE4FE40FF51F70830196F5CF4BEC5CE061
:102A600069EC71E0269FC001279F900D369F900D65
:102A700011248C56914F30E020E0B9016B5B7F4F01
:102A8000FC01E60FF71F640F751FDB016C9160837B
:102A90002F5F3F4F2031310581F7405F5F4F4096F8
:102AA000BDE04B3C5B0739F708952091CA0C30E03C
:102AB0008091C30C81111AC049EC51E0249FC001E0
:102AC000259F900D349F900D11248C56914FFC0141
:102AD000E953FE4F40814093C00C8A539E4F409172
:102AE0003012FC018081481B4093C10C7091AE01F3
:102AF0006091B0015091AF0189EC91E0289FF00105
:102B0000299FF00D389FF00D1124E756F04F90E00B
:102B100080E040E5A0A1A11101C070A3DF01A05594
:102B2000B1096C9350975C934193DF01A15CB109AB
:102B30004C93478701968031910561F789EC91E0CC
:102B4000289FF001299FF00D389FF00D1124EC56BD
:102B5000F14F8181803191F018F48C3049F0089563
:102B6000883119F0803241F00895109224130895AD
:102B700081E080932413089582E0FBCF83E0F9CFB6
:102B80008F929F92AF92BF92CF92DF92EF92FF927D
:102B90000F931F93CF93DF932091CA0C89EC91E0A0
:102BA000289FA001299F500D11244C56514FFA0126
:102BB00030E020E001E010E0812C912C540183945E
:102BC00016A215A2E801022E02C0CC0FDD1F0A9446
:102BD000E2F790E080E0BC01660F771F640F751F7D
:102BE000DB0115966D917C916C237D23672B81F021
:102BF00065A176A175016401082E04C0CC0CDD1C12
:102C0000EE1CFF1C0A94D2F76C297D2976A365A3DC
:102C1000019680319105F9F62F5F3F4F32962031B2
:102C2000310571F6DF91CF911F910F91FF90EF90D9
:102C3000DF90CF90BF90AF909F908F900895EF92CC
:102C4000FF920F931F93CF93DF9381E08093C90C82
:102C50002091CA0C30E080917812811165C089EC16
:102C600091E0289FB001299F700D389F700D1124AD
:102C7000DB01AC56B14FAD0187E39EEF289F700199
:102C8000299FF00C389FF00C112490E080E01596FD
:102C9000ED91FC9116979F0136952795E0FF3FC077
:102CA000306816963C932E931597FA01EE0DFF1D92
:102CB000E60FF71F9C0127563E4FE90128818F013F
:102CC0000B5B1F4FE8013881EC5AFF4F231728F4A4
:102CD0009C0127553E4FE9012881208330E020E008
:102CE0002F5F3F4FFA01E20FF31F8F010B5B1F4F66
:102CF000E8011881EC5BFF4F10832F30310581F71D
:102D000001961296405F5F4F8031910509F0BFCF69
:102D1000DF91CF911F910F91FF90EF90089516963C
:102D20003C932E931597DACF8091F50190E0DC016A
:102D3000AA0FBB1F49EC51E0249FB001259F700DE5
:102D4000349F700D1124A60FB71FAC56B14F1596C6
:102D5000ED91FC911697AF0156954795E0FF45C060
:102D6000506816965C934E931597FC01E756FE4FFC
:102D70004081FC0154E0EE0FFF1F5A95E1F7E60F8A
:102D8000F71FEC56F14FDF01AB5BBF4F5C91EC5A84
:102D9000FF4F451720F4DC01A755BE4F4C914083EF
:102DA00069EC71E0269FA001279F500D369F500DC2
:102DB000112424E0880F991F2A95E1F7840F951FAD
:102DC00050E040E04F5F5F4F9A01280F391F2C56AB
:102DD000314FF901EB5BFF4F60812C5B3F4FF901F5
:102DE00060834F30510571F793CF16965C934E93E5
:102DF0001597D6CFEF92FF920F931F93CF93DF9348
:102E000081E08093C90C2091CA0C30E08091781247
:102E1000811165C089EC91E0289FB001299F700D58
:102E2000389F700D1124DB01AC56B14FAD0187E323
:102E30009EEF289F7001299FF00C389FF00C112401
:102E400090E080E01596ED91FC9116979F01220F7E
:102E5000331FF7FF3FC0216016963C932E931597C2
:102E6000FA01EE0DFF1DE60FF71F9C0127563E4F9E
:102E7000E90128818F010C5A1F4FE8013881EB5B73
:102E8000FF4F231728F49C0127553E4FE901288165
:102E900020832FE030E021503109FA01E20FF31FC7
:102EA0008F010B5B1F4FE8011881EA5BFF4F108316
:102EB0002115310581F701961296405F5F4F8031F1
:102EC000910509F0BFCFDF91CF911F910F91FF9036
:102ED000EF90089516963C932E931597DACF809134
:102EE000F50190E0DC01AA0FBB1F49EC51E0249FE3
:102EF000B001259F700D349F700D1124A60FB71FD0
:102F0000AC56B14F1596ED91FC911697AF01440F59
:102F1000551FF7FF45C0416016965C934E93159779
:102F2000FC01E756FE4F4081FC0154E0EE0FFF1F0D
:102F30005A95E1F7E60FF71FEC56F14FDF01AC5A57
:102F4000BF4F5C91EB5BFF4F451720F4DC01A755A9
:102F5000BE4F4C91408344E0880F991F4A95E1F79A
:102F600069EC71E0269FA001279F500D369F500D00
:102F70001124840F951F4FE050E0415051099A01F0
:102F8000280F391F2C56314FF901EB5BFF4F608141
:102F90002A5B3F4FF90160834115510571F793CFCB
:102FA00016965C934E931597D6CFAF92BF92CF9261
:102FB000DF92EF92FF920F931F93CF93DF93809155
:102FC0003512882349F080918304882329F01092D8
:102FD000830481E0809388018091DF128823E9F0E7
:102FE0008091F5018D30C9F48091F6019091F7013F
:102FF000039799F480918304C1E08C278093830424
:10300000882341F00E94C40DC093F801109235123C
:10301000C093451381E080938801809183048823C5
:1030200009F42BC180912113882359F080919801D4
:103030008F5F883008F02CC18093980181E08093E5
:1030400088018091D412882359F080919801815091
:10305000883008F01FC18093980181E08093880137
:103060008091C912882319F180918204815083369E
:1030700008F013C1809382044091CA0CE09182044D
:1030800029EC31E0429FC001439F900D11248C56E2
:10309000914FE80FF92FF11DEB5BFE4F40E560818A
:1030A00080913E120E94FF0D81E080938801809103
:1030B000CA128823B9F04091CA0CE091820429EC2D
:1030C00031E0429FC001439F900D11248C56914FD7
:1030D000E80FF92FF11DEB5BFE4F608180913E12EE
:1030E0000E94BD0D8091BE12882319F18091820447
:1030F0008F5F833608F0D4C0809382044091CA0C5D
:10310000E091820429EC31E0429FC001439F900D81
:1031100011248C56914FE80FF92FF11DEB5BFE4FF8
:1031200040E5608180913E120E94FF0D81E0809316
:1031300088018091BF128823B9F04091CA0CE091B8
:10314000820429EC31E0429FC001439F900D11247D
:103150008C56914FE80FF92FF11DEB5BFE4F60810C
:1031600080913E120E94BD0D80917C12882329F02F
:103170001092820481E0809388018091F801882375
:1031800009F47BC0C5E5D3E110E000E08CE0C82E77
:1031900099ECE92EFF24F394BB24B39423E6A22EEA
:1031A000D02E8091741290917512002E02C09695C7
:1031B00087950A94E2F7282F2170288339812317F5
:1031C00009F452C02A8121113DC080FF3BC080918B
:1031D0009801602F8C9D600D11242091CA0CE09104
:1031E00082042E9DC0012F9D900D11248C56914F6D
:1031F000E80FF92FF11DEB5BFE4F608340E58091F6
:1032000040120E94FF0D809182048F5F80938204A0
:10321000B092C90C843610F0A09282048091CA0C3E
:1032200090E02091820421508E9DF0018F9DF00D41
:103230009E9DF00D1124E75AFF4E243698F5208309
:10324000B09288018A81882369F0888181110AC03F
:10325000809198016D2D8C9D600D112480914012FC
:103260000E94BD0D88818A83888189830F5F1F4FEB
:103270002B960031110509F093CFDF91CF911F916B
:103280000F91FF90EF90DF90CF90BF90AF90089597
:1032900087E0D2CE10929801E0CE10928204ECCE5C
:1032A00083E62ACF1082CCCFEFE6F0E080818D7FDD
:1032B00080831092890010928800109281001092F1
:1032C00080000895209141123091421240E6429FC1
:1032D000C001439F900D11246CE370E00E94584A96
:1032E0009B0150E040E060E874E88EE190E00E94CD
:1032F000A24A30938900209388000895CF93DF93EA
:103300008091F6019091F7012091F5012C3091F513
:103310008330910579F52091CA0C89EC91E0289FC2
:10332000F001299FF00D1124E45AFF4E808161E0E5
:1033300070E090E00E94850799278E30910514F087
:103340008DE090E04091CA0C29EC31E0429FF00101
:10335000439FF00D1124E45AFF4E808320910D0409
:103360002817E1F080930D0481E08093C90C8093CD
:10337000880114C0019709F0D9C08091FF12811112
:10338000D5C0809147128111D1C0809177048130DE
:1033900009F44CC030F0823009F473C0DF91CF9152
:1033A000089580918F0490919004209178126AE0A2
:1033B00070E0211102C061E070E00E9485079093E7
:1033C000900480938F0480918F0490919004883EA4
:1033D00023E0920710F087EE93E09093900480939F
:1033E0008F0420910B0430910C0428173907B1F297
:1033F00090930C0480930B0460918B0442E054E0A2
:10340000649F9001659F300D11242D563B4F820F14
:10341000931FFC01828180932F12909130128917A3
:1034200019F081E08093C80C81E0A1CF80912F1228
:1034300090E02091781260E170E0211102C061E01B
:1034400070E00E94850780932F1280912F1290E0E8
:103450008038910514F08FE790E0282F80932F1289
:103460004091090450910A048417950709F496CFF6
:1034700090930A0480930904809130122813D1CFCD
:10348000D3CF80918B04C2E0D4E08C9FF0018D9F5C
:10349000F00D1124ED56FB4F80819181209178121F
:1034A0006AE070E0211102C061E070E00E948507CF
:1034B00020918B042C9FF0012D9FF00D1124ED56CF
:1034C000FB4F9183808320918B0430E082E094E075
:1034D000289FF001299FF00D389FF00D1124ED5623
:1034E000FB4F80819181883EF3E09F0710F087EECB
:1034F00093E042E054E0249FF001259FF00D349FBB
:10350000F00D1124ED56FB4F918380832091070429
:10351000309108042817390709F440CF9093080424
:103520008093070481E080938A0421CF80918304F3
:10353000882309F404C180917704813009F449C0DB
:1035400010F1823009F4A9C0833009F027CF8091AF
:10355000980161E070E090E00E948507992788302B
:10356000910514F087E090E0809398012091FF038B
:10357000309100048217930709F410CF9093000450
:103580008093FF0351CF8091820490E020917812C4
:103590006AE070E0211102C061E070E00E948507DE
:1035A000809382048091820490E08436910514F027
:1035B00083E690E080938204209105043091060414
:1035C0008217930709F4EACE9093060480930504CA
:1035D0002BCF2091CA0CE0918204C9ECD1E02C9F42
:1035E000C0012D9F900D11248C56914FE80FF92F9B
:1035F000F11DEB5BFE4F808190E0209178126CE032
:1036000070E0211102C061E070E00E948507909196
:10361000CA0CE09182049C9F90019D9F300D112463
:103620002C56314FE20FF32FF11DEB5BFE4F8083E1
:103630004091CA0C50E08091820490E029EC31E086
:10364000429FF001439FF00D529FF00D1124E80FAF
:10365000F91FE752F04F208130E02038310514F097
:103660002FE730E069EC71E0469FF001479FF00DD5
:10367000569FF00D1124E80FF91FE752F04F2083F9
:1036800080910304909104042817390709F486CE29
:103690003093040420930304C7CE8091CA0CC9EC74
:1036A000D1E08C9FF0018D9FF00D1124E75AFF4E61
:1036B000808190E0209178126AE070E0211102C0D0
:1036C00061E070E00E9485079091CA0C9C9FF00118
:1036D0009D9FF00D1124E75AFF4E80832091CA0C64
:1036E00030E089EC91E0289FF001299FF00D389F90
:1036F000F00D1124E75AFF4E808190E08436910549
:1037000014F083E690E049EC51E0249FF001259FFE
:10371000F00D349FF00D1124E75AFF4E8083209165
:103720000104309102048217930709F437CE909375
:1037300002048093010481E08093C60C18CE80912E
:103740004712882309F4EEC080914612813009F0B7
:1037500092C080917704813009F448C058F18230DA
:1037600009F468C0833009F019CE80913F1261E0FE
:1037700070E090E00E94850761E070E0882339F0F6
:10378000BC0177276131710514F060E170E060934E
:103790003F128091F8039091F9036817790709F4B3
:1037A000FDCD7093F9036093F8038CEE94E10E94D1
:1037B000723D3EC080913C1261E070E090E00E945A
:1037C000850799278330910514F082E090E080937B
:1037D0003C122091FE03281709F4E0CD8093FE03EC
:1037E00081E080933D1280934812C1CD61E070E08A
:1037F00080914312909144120E9485078B3F91055E
:1038000010F08AEF90E08E31910510F48EE190E097
:1038100090934412809343122091FC033091FD0356
:103820008217930709F4BACD9093FD038093FC03AC
:1038300081E0D9CF80913E1261E070E090E00E947B
:1038400085078823A9F099278131910514F080E13B
:1038500090E080933E122091FA033091FB0382178F
:10386000930709F49BCD9093FB038093FA03E0CF79
:1038700081E090E0EECF823009F090CD8091770426
:103880008130C1F110F1823009F088CD8091401271
:1038900061E070E090E00E948507882309F43FC052
:1038A00099278131910514F080E190E080934012D6
:1038B0002091F4033091F5038217930709F46ECD3C
:1038C0009093F5038093F403B3CF80913B1261E0B2
:1038D00070E090E00E94850721E0892B09F420E048
:1038E00020933B128091F703281709F457CD2093BA
:1038F000F7039ECF8091491261E070E090E00E9452
:10390000850721E0892B09F420E02093491280915A
:10391000F603281709F442CD2093F60389CF81E0FE
:1039200090E0C4CF61E070E080914112909142122A
:103930000E9485078F31910578F190934212809310
:10394000411280914112909142128A3F910530F0CC
:103950008AEF90E09093421280934112809141123D
:10396000909142122091F2033091F3038217930752
:1039700009F414CD9093F3038093F2030E9462192B
:103980008091F6019091F701039709F04DCD809158
:10399000FF12811149CD02CD8EE190E0CECFE1E85A
:1039A000F0E010821092800080818A6080830E9403
:1039B0006219EFE6F0E0808182608083089582E002
:1039C0008093B0001092B1001092B20099EF9093E2
:1039D000B3008093700008951092B00087E0809348
:1039E000B10010927000089580913C12813061F016
:1039F00018F0823089F008950E94DF1C0E941D0E8D
:103A00000E94410E0C94CF1C0E9454190E94DF1C8E
:103A10000E94410E0C94050E0E9454190E94EC1C49
:103A20000E941D0E0E94350E10926B1210926A12A7
:103A300010926412109263121092651208951092FF
:103A400090001092920010929100F89410929500BC
:103A5000109294008091CB019091CC0190939900A9
:103A600080939800789482E080937100089520916B
:103A70009800309199004091CA0C89EC91E0489FE0
:103A8000F001499FF00D1124EC56F14FE481F0E074
:103A9000EE0FFF1FE753FE4F8081918128173907F2
:103AA00021F090939900809398000895CF93DF932D
:103AB0008091621221E082278093621280913A12F3
:103AC00090E060E370E00E946C4A892B29F48091B9
:103AD0001D02822780931D0280913A129091CA0C98
:103AE00029EC31E0929FF001939FF00D1124EC56E8
:103AF000F14F618166950E944C4A911102C010926B
:103B00001C0280913A12837039F48091C80085FFBD
:103B1000FCCF88EF8093CE0080913C12811109C0C8
:103B200080913A12837009F004C2119A81E0809367
:103B30004F0480913512882309F4EDC180913A1227
:103B40004091CA0C50E029EC31E0429FF001439FC4
:103B5000F00D529FF00D1124EC56F14F3181632F7F
:103B60000E944C4A832F8695981305C08091381285
:103B70008F5F8093381289EC91E0489FF001499F54
:103B8000F00D589FF00D1124EC56F14F20818091DB
:103B90003812281710F41092381210922E12109228
:103BA0002D1280913A12632F0E944C4A911103C04A
:103BB00081E08093371280913A12E091261269ECED
:103BC00071E0469FD001479FB00D569FB00D112464
:103BD000AC56B14F13964C914150550B440F551FA5
:103BE000E40FF52FF11DEE0FFF1FE752FE4F40814E
:103BF0005181840F952F911D632F70E00E946C4AB4
:103C0000892B09F04EC180913712882309F449C1EC
:103C1000109237128091261291E089278093261204
:103C200090931C0280914512813009F4ACC108F4D4
:103C30009AC1823009F487C1833009F4ACC1209164
:103C4000CA0C89EC91E0289FA001299F500D1124F6
:103C500030E020E0A091391260912D1270912E1267
:103C6000F901EE0FFF1FE40FF51FEC56F14F8581B0
:103C7000968102C096958795AA95E2F7817099275B
:103C8000022E02C0880F991F0A94E2F7862B972B09
:103C900090932E1280932D122F5F3F4F20313105CC
:103CA000C9F64091391220912D1230912E12809137
:103CB00027129091281202C0969587954A95E2F7AF
:103CC00043E0880F991F4A95E1F788709927822B66
:103CD000932B90932E1280932D120E94371D80916A
:103CE0002D1290912E12892B09F470C00E94811020
:103CF00020919E0C30919F0C80912D1290912E124C
:103D000096FF02C036FD53C180912D1290912E1264
:103D1000E90197FD4FC14091CA0C50E0A0913912C2
:103D200069EC71E0469FF001479FF00D569FF00D42
:103D30001124EC56F14F61A172A102C076956795EE
:103D4000AA95E2F760FF02C036FF37C160913912D1
:103D5000A9ECB1E04A9FF0014B9FF00D5A9FF00D86
:103D60001124EC56F14F43A154A102C0569547953A
:103D70006A95E2F740FD28C1C095D09580912D123B
:103D800090912E1220919A0C30919B0C8C239D23A4
:103D9000822B932B0E94FA0680912D1290912E1265
:103DA00020919A0C30919B0C8C239D23822B932B7A
:103DB0000E94550E85E08093B10080912B12909166
:103DC0002C12892B19F08BE08093910020913912ED
:103DD0003091CA0C89EC91E0389FF001399FF00DC9
:103DE0001124EC56F14F8581968102C096958795F6
:103DF0002A95E2F780FF04C0129881E0809348047E
:103E0000209139128091CA0CC9ECD1E08C9FF0014D
:103E10008D9FF00D1124EC56F14F878D90A102C0BB
:103E2000969587952A95E2F780FF20C00E94C40DE1
:103E3000E09136122091CA0C2C9FC0012D9F900D4D
:103E400011248C56914FE80FF92FF11DEB5BFE4FBB
:103E500040E56081809140120E94FF0D81E08093D7
:103E60007604809136128F5F8093361280913612DD
:103E70009091CA0C29EC31E0929FF001939FF00DD4
:103E80001124E75AFF4E9081981710F410923612C1
:103E90008091F9019091FA0101969093FA01809333
:103EA000F9018091F9019091FA014091CA0C29EC35
:103EB00031E0429FF001439FF00D1124EC56F14F89
:103EC0002081281719063CF5C1E0C0932912C09340
:103ED00088041092FA011092F9018091C70C88238E
:103EE000D1F08091F6019091F7010297A1F4109220
:103EF000C70C83E080939801109282040E94C40D45
:103F00008091CA0C8C278093CA0C0E9455150E9480
:103F1000E4130E94C01580913A128F5F80933A1289
:103F200080913A12803610F010923A12DF91CF91C0
:103F3000089580913A128370823009F0FACD119879
:103F400010924F04F6CD9091391280912A122913C4
:103F500002C081110FC090913912992371F08091A4
:103F60002A12882381F08091F9019091FA018093BF
:103F7000391265CE10922A12F2CF8111F0CF81E072
:103F800080932A12ECCF8091F9019091FA01281BBD
:103F90002093391254CE20E130E040E050E060E060
:103FA00070E0CB010E94CC496093391248CEE90100
:103FB000C062B1CE37FFAFCEFBCF22E030E030930E
:103FC0009B0C20939A0CD8CE37FDD6CE10929B0C2A
:103FD00010929A0CD1CE1F920F920FB60F9211240D
:103FE0000BB60F922F933F934F935F936F937F93F3
:103FF0008F939F93AF93BF93EF93FF930E94561DB0
:10400000FF91EF91BF91AF919F918F917F916F91B0
:104010005F914F913F912F910F900BBE0F900FBE6C
:104020000F901F901895119A0E94561D0E94561DC0
:104030000E94561D0E94561D11980895CF92EF922E
:104040000F93E0E8F4E090E5908381E08183EEE770
:10405000F4E09083818387E1C82E96E1E92E05E1A3
:1040600024E143E162E188E194E00E94DC440F91A5
:10407000EF90CF900895CF92DF92EF92FF926B0175
:104080007C0160E5C114D10481E0E806F10408F088
:1040900064E581E297E10E944B4399278F2D7E2DA5
:1040A0006D2D81E297E10E94D5426C2D81E297E16E
:1040B000FF90EF90DF90CF900C94D5422F923F92DB
:1040C0004F925F926F927F928F929F92AF92BF9228
:1040D000CF92DF92EF92FF921F93CF93DF9300D0A6
:1040E00000D0CDB7DEB7182F282F30E0A0ECB1E01C
:1040F0000E94CA4A2B013C010E943B20F12CE12C7A
:104100002091CA0CF701EE0FFF1F49EC51E0249FEC
:10411000C001259F900D1124E80FF91FEC56F14FB7
:104120006581D68081E297E10E94D5426D2D81E2C2
:1041300097E10E94D5425FEFE51AF50A80E1E816A3
:10414000F104F1F68091CA0CA9ECB1E08A9FF0016C
:104150008B9FF00D1124EC56F14F608181E297E1C5
:104160000E94D5428091CA0C29EC31E0829FF00177
:10417000839FF00D1124EC56F14F618181E297E1AC
:104180000E94D5428091CA0C49EC51E0849FF00115
:10419000859FF00D1124EC56F14F638181E297E188
:1041A0000E94D5428091CA0CA9ECB1E08A9FF0012F
:1041B0008B9FF00D1124EC56F14F648181E297E161
:1041C0000E94D5428091CA0C29EC31E0829FF00117
:1041D000839FF00D1124E75AFF4E608181E297E141
:1041E0000E94D5428091CA0C49EC51E0849FF001B5
:1041F000859FF00D1124E65AFF4E608181E297E120
:104200000E94D5428091CA0CA9ECB1E08A9FF001CE
:104210008B9FF00D1124E55AFF4E608181E297E1FA
:104220000E94D5428091CA0C29EC31E0829FF001B6
:10423000839FF00D1124E45AFF4E608181E297E1E3
:104240000E94D54248E150E05A83498360E081E210
:1042500097E10E94D54289819A8101979A83898347
:10426000892BA1F781E297E10E94684365E070E045
:1042700080E090E00E94A545212F30E0A7E0B0E06B
:104280000E94CA4A6B017C01812C912C5401A3012C
:104290009201205C3F4F4F4F5F4F29833A834B83FE
:1042A0005C838CEE94E10E94704269817A818B81FB
:1042B0009C81680D791D8A1D9B1D0E943B20240155
:1042C000350110E48091CA0C49EC51E0849FF00163
:1042D000859FF00D1124EC56F14FE40DF51DEB5BBD
:1042E000FE4F608181E297E10E94D54211505FEF5D
:1042F000451A550A650A750A1111E4CF81E297E162
:104300000E94684365E070E080E090E00E94A5456F
:1043100080E4880E911CA11CB11C90E889169104C0
:10432000A104B10409F0BDCFA3E0CA0ED11CE11C69
:10433000F11C1601270196E0220C331C441C551C6D
:104340009A95D1F7F12CE12C8CEE94E10E94704209
:10435000C201B1010E943B20470114E0B12CA12C05
:10436000340184E0660C771C8A95E1F78091CA0CD1
:1043700029EC31E0829FF001839FF00D1124E60DBE
:10438000F71DEA0DFB1DE752F14F608181E297E1D5
:104390000E94D5423FEFA31AB30A40E1A416B1042C
:1043A00029F711505FEF851A950A1111D7CF81E2D5
:1043B00097E10E94684365E070E080E090E00E9431
:1043C000A54580E4280E311C411C511C94E0E90EE7
:1043D000F11CA0E1EA16F10409F0B6CF0F900F909E
:1043E0000F900F90DF91CF911F91FF90EF90DF9092
:1043F000CF90BF90AF909F908F907F906F905F9085
:104400004F903F902F9008954F925F926F927F92BE
:104410008F929F92AF92BF92CF92DF92EF92FF92D4
:104420001F93CF93DF9390918B0422E034E0929F0F
:10443000F001939FF00D1124ED56FB4F20819181E7
:10444000DF01BC5F2C93EF5FFB4F908390E0B0E007
:10445000A0E06C017D018AE0CC0CDD1CEE1CFF1C91
:104460008A95D1F7812C912C540180EED80EE11C55
:10447000F11CC2E0D4E0C701B601680D791D8A1DA8
:104480009B1D0E943B202401350110E480918B0488
:104490008C9FF0018D9FF00D1124ED56FB4FE40D24
:1044A000F51D628181E297E10E94D54211508FEFA4
:1044B000481A580A680A780A1111E8CF81E297E190
:1044C0000E94684365E070E080E090E00E94A545AE
:1044D00080E4880E911CA11CB11C811484E0980614
:1044E000A104B10441F6DF91CF911F91FF90EF90AD
:1044F000DF90CF90BF90AF909F908F907F906F9004
:104500005F904F900895CF93DF9360E070E281E079
:1045100090E00E943B20CBE3D2E1698181E297E108
:104520000E94D542688581E297E10E94D5426B8165
:1045300081E297E10E94D5426C8181E297E10E947D
:10454000D542688181E297E10E94D5426E8581E281
:1045500097E10E94D5426D8181E297E10E94D542A8
:1045600081E297E10E94684365E070E080E090E0BE
:10457000DF91CF910C94A54580913D12882321F0C5
:104580000E94F41C10923D1280914812882351F031
:104590008091EA12882331F00E94832210924812FF
:1045A0000E945B0980914712811102C0109248124B
:1045B00008953F924F925F926F927F928F929F9257
:1045C000AF92BF92CF92DF92EF92FF920F931F9321
:1045D000CF93DF9340ECC42ED12CE12CF12C10E0D2
:1045E000412C512C32014394C701B601605C710922
:1045F000810991090E943B20C0E160E081E297E1DE
:104600000E94D54260E081E297E10E94D542C1500C
:10461000A1F76FE081E297E10E94D54268E181E273
:1046200097E10E94D54261E081E297E10E94D54284
:1046300060E081E297E10E94D54260E081E297E18B
:104640000E94D54260E081E297E10E94D54260E09D
:1046500081E297E10E94D54260E081E297E10E9409
:10466000D54281E297E10E94684365E070E080E016
:1046700090E00E94A5454601570120E8821A910862
:10468000A108B108C2E0D0E0C501B4010E943B20FE
:1046900000E460E081E297E10E94D5420150C9F751
:1046A00081E297E10E94684365E070E080E090E07D
:1046B0000E94A54530E4830E911CA11CB11C2197DA
:1046C00009F0DBC046015701C4E0D0E0C501B401E8
:1046D0000E943B2004E030E1332E60E081E297E16C
:1046E0000E94D5423A943110F8CF0150A1F781E2EF
:1046F00097E10E94684365E070E080E090E00E94EE
:10470000A545219740E4840E911CA11CB11C209763
:10471000E9F6812F869586958695A301920104C0BE
:10472000220F331F441F551F8A95D2F7C9012091CC
:10473000100430911104822B932B909311048093D9
:10474000100440E070E060E00E94D2061F5F30EC91
:10475000C30E31E0D31EE11CF11C40ECC41640EE48
:10476000D406E104F10409F03FCFD0E0C0E0C12C51
:1047700090EED92EE12CF12C412C512C3201439496
:104780004601570110E000E0C501B4010E943B2042
:1047900080E4382E60E081E297E10E94D5423A94AD
:1047A0003110F8CF81E297E10E94684365E070E044
:1047B00080E090E00E94A5450F5F1F4F50E4850EFA
:1047C000911CA11CB11C00311105F1F6D301C201ED
:1047D0000C2E04C0880F991FAA1FBB1F0A94D2F782
:1047E00020910E0430910F04822B932B90930F0491
:1047F00080930E0440E070E060E00E94D2062196B3
:1048000034E0D30EE11CF11CC031D10509F0B8CF62
:1048100060E070E281E090E00E943B2060E081E295
:1048200097E10E94D54268E781E297E10E94D54274
:1048300061E081E297E10E94D54261E081E297E187
:104840000E94D54281E297E10E94684365E070E0F2
:1048500080E090E0DF91CF911F910F91FF90EF905A
:10486000DF90CF90BF90AF909F908F907F906F9090
:104870005F904F903F900C94A545C1E0D0E004CFED
:104880004F925F926F927F928F929F92AF92BF9260
:10489000CF92DF92EF92FF920F931F93CF93DF930C
:1048A00000D000D0CDB7DEB7082F282F30E0A0EC25
:1048B000B1E00E94CA4A2B013C010E943B2081E2E8
:1048C00097E10E94684340E450E060E570E081E2D7
:1048D00097E10E944843D12CC12C11E081E297E17D
:1048E0000E94B242B82E81E297E10E94B2429091BA
:1048F000CA0C9127F601EE0FFF1F49EC51E0949F7F
:104900009001959F300D1124E20FF31FEC56F14FEB
:10491000F82EE12CC7018B29968385835FEFC51A9A
:10492000D50A80E1C816D104C9F681E297E10E9458
:10493000B2429091CA0C9127A9ECB1E09A9FF00184
:104940009B9FF00D1124EC56F14F808381E297E19B
:104950000E94B2429091CA0C912729EC31E0929FBB
:10496000F001939FF00D1124EC56F14F818381E209
:1049700097E10E94B2429091CA0C912749EC51E014
:10498000949FF001959FF00D1124EC56F14F838315
:104990008093C50C81E297E10E94B2429091CA0CCB
:1049A0009127A9ECB1E09A9FF0019B9FF00D112493
:1049B000EC56F14F84838093C40C81E297E10E940E
:1049C000B2429091CA0C912729EC31E0929FF001FC
:1049D000939FF00D1124E75AFF4E808381E297E107
:1049E0000E94B2429091CA0C912749EC51E0949FE9
:1049F000F001959FF00D1124E65AFF4E808381E26D
:104A000097E10E94B2429091CA0C9127A9ECB1E0C3
:104A10009A9FF0019B9FF00D1124E55AFF4E808371
:104A200081E297E10E94B2429091CA0C192729ECC9
:104A300031E0129FF001139FF00D1124E45AFF4E54
:104A4000808348E150E05A83498381E297E10E94E4
:104A5000B24289819A8101979A838983892BA9F728
:104A6000202F30E0A7E0B0E00E94CA4A6B017C0131
:104A7000812C912C5401A3019201205C3F4F4F4F98
:104A80005F4F29833A834B835C8301E08CEE94E192
:104A90000E94704269817A818B819C81680D791DA9
:104AA0008A1D9B1D0E943B2081E297E10E94684382
:104AB00040E450E060E570E081E297E10E94484305
:104AC0002401350110E481E297E10E94B242909105
:104AD000CA0C902749EC51E0949FF001959FF00D8E
:104AE0001124EC56F14FE40DF51DEB5BFE4F808376
:104AF00011505FEF451A550A650A750A1111E3CF87
:104B000080E4880E911CA11CB11C90E889169104C8
:104B1000A104B10409F0BACFA3E0CA0ED11CE11C74
:104B2000F11C2601370126E0440C551C661C771C3D
:104B30002A95D1F71A821982CC24C39439ECA32E7A
:104B4000BB24B3948CEE94E10E947042C301B20185
:104B50000E943B2081E297E10E94684340E450E0DC
:104B600060E570E081E297E10E944843E980FA80C5
:104B700094E0D92E10E000E0470184E0880C991CF5
:104B80008A95E1F781E297E10E94B2429091CA0CC6
:104B90009C259A9DF0019B9DF00D1124E80DF91DB7
:104BA000E00FF11FE752F14F80830F5F1F4F00317D
:104BB000110541F7DA94BFEFEB1AFB0AD110DACFF7
:104BC00020E4420E511C611C711C49815A814C5FCA
:104BD0005F4F5A8349834031510509F0B3CF0F909D
:104BE0000F900F900F90DF91CF911F910F91FF9039
:104BF000EF90DF90CF90BF90AF909F908F907F907D
:104C00006F905F904F9008954F925F926F927F9256
:104C10008F929F92AF92BF92CF92DF92EF92FF92CC
:104C20001F93CF93DF9390E0B0E0A0E06C017D0193
:104C30008AE0CC0CDD1CEE1CFF1C8A95D1F780EEBF
:104C4000D80EE11CF11C812C912C5401C2E0D4E05F
:104C5000C701B6010E943B2081E297E10E946843B0
:104C600040E450E064E570E0C114D10481E0E8065E
:104C7000F10410F460E570E081E297E10E9448439E
:104C80002401350110E081E297E10E94B242909147
:104C90008B049C9FF0019D9FF00D1124ED56FB4F5E
:104CA000DF01A40DB51D12968C931F5F8FEF481A7C
:104CB000580A680A780A103431F780E4880E911C8B
:104CC000A11CB11C80E4C80ED11CE11CF11C811494
:104CD00084E09806A104B10409F0BACFDF01AF5F08
:104CE000BB4F8C9111979C91892798278927918395
:104CF0008083DF91CF911F91FF90EF90DF90CF9055
:104D0000BF90AF909F908F907F906F905F904F90EB
:104D100008952F923F924F925F926F927F928F925F
:104D20009F92AF92BF92CF92DF92EF92FF920F933A
:104D30001F93CF93DF9381E00E94980190937512A7
:104D40008093741280913512882349F08091471224
:104D5000882329F01092471281E080938801809186
:104D6000F6019091F701059711F01092B61280911B
:104D70004712811102C01092461280913713882386
:104D800059F0809177048F5F843008F0F1C08093F0
:104D9000770481E08093880180914D13811104C0D4
:104DA00080917504882301F1D1E0D09335121092DF
:104DB000F80110923A121092FA011092F901109231
:104DC0003812D0932A121092451310922612109284
:104DD000361210921D026AEF70E08CEE94E10E9490
:104DE0003A3F109AD093500480914213882321F0C7
:104DF00080917812882341F080917404811104C05D
:104E0000809173048823A1F00E944D0E8091740458
:104E1000882309F4B0C010924513809145138F5F29
:104E200080934513813009F4AFC0823009F4BAC0D1
:104E300020918712309177129091921280911613DF
:104E4000332309F4C2C0222369F021E020938801B2
:104E500021E030E03093F7012093F60110928304B3
:104E600010924712992369F091E09093880123E012
:104E700030E03093F7012093F60110924712109220
:104E80008A04882379F084E090E09093F70180937E
:104E9000F60181E0809388011092830410924712FA
:104EA00010928A048091A812882321F080913012F8
:104EB0000E9468148091B312882339F080913012D7
:104EC0000E94DE1481E08093C90C80910013882336
:104ED000B9F080913512811113C081E0809347129F
:104EE000809146128F5F8093461210927704833030
:104EF00020F0109246121092471281E080938801B0
:104F00008091F6019091F7010397029708F00DC385
:104F10008091741290917512009711F4109276128C
:104F200020917812222309F403C1892B09F400C1CE
:104F300081E08093F003109283040E94BC048031CE
:104F400008F0E5C0E82FF0E0E855F84D0C94C14AB0
:104F50006628662870287028722872287428742899
:104F60007628762878287C287E287E28012CFF2B1E
:104F7000109277040ECF80917304882309F44DCFEB
:104F800081E08093451349CF8093F8011092351248
:104F90006CEF70E08CEE94E10E943A3F1098109212
:104FA000500446CF1092F801D1E0D0933512109200
:104FB000451310923A126BEF70E08CEE94E10E9470
:104FC0003A3F109AD093500433CF222359F01092D5
:104FD000F7011092F60121E02093880110928304DA
:104FE000109247129923B9F02091F6013091F70100
:104FF0002330310509F044C022E030E03093F7015E
:105000002093F60191E0909388011092830410920E
:10501000471210928A0481110E941F1680910B136F
:1050200081110E94FA1680912C13882349F08091F7
:105030002F138F5F80932F13813029F1823031F14C
:105040008091B312882349F08091B6128F5F8093CC
:10505000B612813009F1823071F18091F6019091A0
:10506000F701059711F01092B61280914712811145
:1050700002C0109246128091011381113ECF40CFA1
:1050800023E030E0BBCF0E943301DACF80E00E9402
:10509000010510922F13D4CF8091F6019091F70162
:1050A000909334128093331285E090E09093F7014F
:1050B0008093F601D2CF8091331290913412909365
:1050C000F7018093F6011092B612C7CF88E0809363
:1050D000F5018091761281111AC01092321217C018
:1050E00089E0F5CF8AE0F3CF8BE0F1CF82E0EFCF1C
:1050F00083E08093F501F1CF84E0FBCF1092321270
:1051000080917612811103C08EE08093F501809129
:105110007412909175128033910509F480C308F0E0
:1051200072C38330910509F47AC30C9709F477C3ED
:105130008091F003882349F080919E12882329F002
:1051400081E0809388011092F00380917812882387
:1051500099F08091EA12882331F08CE08093F50178
:1051600081E08093880180914213882329F0109276
:10517000F50181E08093880180917712882351F0B6
:1051800080912C13882331F08DE08093F50181E02C
:105190008093880160917C1280917B12882309F4AE
:1051A0007AC080918304811176C08091F60190913C
:1051B000F701049709F46FC080913512882309F430
:1051C0006AC040919E0C50919F0C662321F0509331
:1051D0009D0C40939C0C7091F501272F30E081E0ED
:1051E00090E0072E02C0880F991F0A94E2F7842BE3
:1051F000952B90939F0C80939E0C40913912509167
:10520000CA0CF901EE0FFF1FA9ECB1E05A9FC001D3
:105210005B9F900D1124E80FF91FEC56F14FC12C44
:10522000D12C7601C39404C0CC0CDD1CEE1CFF1CF9
:105230004A95D2F7C094D094E094F0944581568179
:10524000C422D522D682C582E0913912A901F4E0A8
:10525000440F551FFA95E1F7480F591F4C56514F0F
:10526000E40FF52FF11DEB5BFF4F27563E4FD901A1
:105270002C9120837E3061F4E09139128C56914F4D
:10528000E80FF92FF11DEB5DFE4F8091AE01808399
:1052900081E08093C90C80917D12882341F0809138
:1052A0009C0C90919D0C90939F0C80939E0C662378
:1052B00009F471C08091830481116DC08091F60161
:1052C0009091F701049709F466C08091351281111D
:1052D00062C08091CA0C90E029EC31E0829FF0011D
:1052E000839FF00D929FF00D112430E020E0D90152
:1052F000AA0FBB1FAE0FBF1FAC56B14F16961C9224
:105300001E9215972F5F3F4F2031310581F7E090B6
:10531000A101F090A2010091A3011091A401D091EC
:105320009B0170919C0160919D0150919F01409162
:10533000A001E750F14F20E130E0DF01A05ABF4F5C
:10534000EC925096FC9250960C9350961C93D193ED
:105350007787678F57AFDF01A15BBF4F4C93215019
:10536000310959F729EC31E0829FF001839FF00D5C
:10537000929FF00D1124EC56F14F81E0838314824B
:105380009FE0908398E1918393E0909398018093BC
:10539000C90C809388018091F512811104C080911D
:1053A000F612882319F081E0809388018091F4122D
:1053B000882309F443C08091741290917512892B4F
:1053C000E9F10E94BC04873008F034C20E94BC049A
:1053D0008F5F9091CA0C09EC11E0909FF001919FB2
:1053E000F00D1124EC56F14F83836091C50C8617A4
:1053F00029F1685F40E088E194E00E94274461EA77
:1054000088E194E00E94EE488091CA0C809FF001F0
:10541000819FF00D1124EC56F14F63816093C50C10
:10542000685F40E088E194E00E9427446BED88E1EA
:1054300094E00E94EE4881E08093C90C8091211392
:105440008823F1F08091830481111AC081E0809358
:1054500088018093C90C809124138F5F843009F4F4
:105460001CC28093241380912413813009F426C236
:1054700008F416C2823009F42EC2833009F438C20F
:105480008091D3128823E1F080917412909175126B
:10549000892BB1F00091CA0C10E00E94BC0429ECE9
:1054A00031E0029FF001039FF00D129FF00D1124D7
:1054B000EC56F14F808381E0809388018093C90C82
:1054C0008091F6019091F7018330910509F01DC29A
:1054D00080919E128111109276128091D3128111C7
:1054E0007CC080917812811178C0809183048111F1
:1054F00074C08091F412811170C04091CA0CC091A7
:10550000F501D0E0CC0FDD1F29EC31E0429FC00156
:10551000439F900D1124C80FD91FCC56D14F8D81B8
:105520009E810E9406029E838D838091F601909158
:10553000F701029709F051C080919E1281111092DB
:1055400076128091741290917512892B19F18091C5
:10555000A712882309F461C60E94BC04873008F4AE
:1055600059C687E0809331129091301280913112A8
:105570008295807F292F2F70820F80932F12109297
:10558000C00C981739F080913512811103C081E069
:105590008093C80C80917712882361F080910B135F
:1055A000882341F080914512833008F098C68F5FC0
:1055B0008093451280918804882379F08091C00CF3
:1055C00081110BC09091301280912F12981719F011
:1055D00081E08093C80C109288048091F60190912C
:1055E000F701019709F071C78091741290917512BB
:1055F000892BE9F08091A712882309F476C60E94CE
:10560000BC04873008F46EC687E080933112909115
:105610003012809131128295807F292F2F70820F56
:1056200080932F12981719F081E08093C80C309165
:10563000C912332361F180918F04909190040197F6
:105640008130D4E09D0708F06CC69093900480935D
:105650008F0420918B0482E094E0289FF001299F21
:10566000F00D1124ED56FB4F80918F049091900422
:10567000E80FF91F828180932F12909130128917C1
:1056800019F081E08093C80C81E08093880120911B
:10569000BE12222361F180918F04909190040196B3
:1056A0008130E4E09E0708F041C690939004809317
:1056B0008F0440918B0482E094E0489FF001499F61
:1056C000F00D1124ED56FB4F80918F0490919004C2
:1056D000E80FF91F828180932F1290913012891761
:1056E00019F081E08093C80C81E08093880180915B
:1056F0007C128823E1F01092900410928F04409164
:105700008B0482E094E0489FF001499FF00D112442
:10571000ED56FB4F828180932F12909130128917A2
:1057200019F081E08093C80C81E08093880180911A
:105730007712882309F473C68091DE12882301F161
:1057400040918B0482E094E0489FF001499FF00D66
:105750001124ED56FB4F80819181909390048093AA
:105760008F04E80FF91F828180932F1290913012DD
:10577000891719F081E08093C80C81E0809388013B
:10578000332309F4F8C580918B0490E042E054E0A3
:10579000849FF001859FF00D949FF00D1124DF018F
:1057A000AD56BB4F6D917C916115710509F4E3C550
:1057B000C0918F04D0919004DB011197AE014F5F2F
:1057C0005F4FCA17DB0708F006C6EC0FFD1FED564A
:1057D000FB4FCEEFDBEF8C9F80018D9F100D9C9FC8
:1057E000100D11243196EF01C359D440C00FD11FC1
:1057F000C617D70708F09DC533813283F3CF86E003
:1058000078CC87E076CC811523E0920741F08115B2
:1058100030E3930751F0803C910509F089CC81E099
:10582000809332128093761283CC8FE08093F501BF
:1058300081E0F8CF0E94BC04883008F4FFCD0E94BC
:10584000BC0488509091CA0C09EC11E0909FF001C3
:10585000919FF00D1124EC56F14F84836091C40C9C
:10586000861709F4EBCD685F41E088E194E00E947F
:10587000274461EA88E194E00E94EE488091CA0CD6
:10588000809FF001819FF00D1124EC56F14F64814F
:105890006093C40C685F41E0C5CD10922413E3CD42
:1058A0002091CA0C89EC91E0289FF001299FF00D0E
:1058B0001124EC56F14F88E18183E2CD2091CA0C8E
:1058C00089EC91E0289FF001299FF00D1124EC56FE
:1058D000F14F8CE0F1CF2091CA0C89EC91E0289F28
:1058E000F001299FF00D1124EC56F14F80E2E4CF36
:1058F0002091CA0C89EC91E0289FF001299FF00DBE
:105900001124EC56F14F80E1D7CF049709F00DCE6A
:1059100080917B12882309F49AC080917C1288239D
:1059200041F080919E0C90919F0C90939D0C8093E0
:105930009C0C8091741290917512892B09F411C1FD
:105940000E94BC048031B8F4E82FF0E0E655F34D36
:105950000C94C14AAF2DAF2DBA2CBA2C9B2D9B2D88
:105960009D2D9D2D9F2D9F2DA12DA32DA52DA52DC9
:10597000AD2DAB2DC9E080917412909175128115F7
:10598000904321F481E080937612CFE02C2F30E019
:1059900081E090E00C2E02C0880F991F0A94E2F774
:1059A00040919C0C50919D0C842B952B90939F0CB7
:1059B00080939E0CA09139126091CA0CF901EE0FF0
:1059C000FF1F49EC51E0649FC001659F900D1124B9
:1059D000E80FF91FEC56F14F41E050E060E070E055
:1059E00004C0440F551F661F771FAA95D2F7409534
:1059F000509560957095A581B6814A235B235683A7
:105A00004583E0913912A901D4E0440F551FDA957E
:105A1000E1F7480F591F4C56514FE40FF52FF11D78
:105A2000EB5BFF4F27563E4FD9012C912083CE30A0
:105A300059F4E09139128C56914FE80FF92FF11D6E
:105A4000EB5DFE4F80E5808381E08093C90C8091FF
:105A50007D12882341F080919C0C90919D0C909335
:105A60009F0C80939E0C8091D312811126C180914E
:105A70007812811122C180917B1281111EC1809107
:105A8000F41281111AC180917412909175128827B5
:105A900090738115904309F075C081E08093EF0306
:105AA00005E513E1F12CE12C22E0722E812C912CE2
:105AB00054018394C9ECD1E048E0342E53E0252E04
:105AC0006EE0462E7BE0572EEAE06E2EDE2C8091B3
:105AD0007412909175120E2C02C0969587950A94B7
