:020000040000FA
:100000000C94FC000C9426010C9426010C942601FF
:100010000C9426010C9426010C9426010C942601C4
:100020000C9426010C94DC0E0C9426010C942601F1
:100030000C9426010C94791F0C9426010C94260133
:100040000C9426010C9426010C943A460C9426013B
:100050000C9423490C9459490C9426010C942601C4
:100060000C9426010C9426010C94C23C0C9426019D
:100070000C94BA490C94F0490C9426010C94260176
:100080000C94A70F0C9426010C9426011E011B0151
:100090001801150112010F010C01090106010301EC
:1000A0000001FD003601330130012D012A01270135
:1000B00024012101750171016D0169016501610171
:1000C0005D015901550151014D01490145014101B0
:1000D0003D013901E500E200E900ED00F900F5001D
:1000E000F100484800432F4F004652450053594EF7
:1000F0000045585000534C56004D535400204200C8
:1001000041230020410047230020470046230020D0
:1001100046002045004423002044004323002043A0
:10012000002B34002B33002B32002B31002B3000FE
:100130002D31002D32002D3300204F480020434840
:10014000004558540041434300204D5400204C5476
:100150000020534400204244004352480052494486
:10016000002020200048434C0052494D00204854B4
:100170000020202000545247000000000203000A23
:100180000B0000000005040908000000000000004A
:1001900000000000000000000001020408102040E0
:1001A0008001020408102040800102040810204051
:1001B00080010204081020408002020202020202B2
:1001C00002040404040404040403030303030303F8
:1001D00003010101010101010100002200250028A5
:1001E000002B0000002100240027002A0000AC1F83
:1001F00029407B448D49244A11241FBECFEFD0E40F
:10020000DEBFCDBF13E0A0E0B1E0ECEAFAE900E028
:100210000BBF02C007900D92A03FB107D9F729E1AB
:10022000A0EFB3E001C01D92A031B207E1F710E0EA
:10023000CCEFD0E004C02197FE010E947E4CC73F66
:10024000D107C9F70E94E94B0C94544D0C9400005F
:1002500081E080938704089581E080938604089567
:1002600081E080938504089581E191E190933A12B1
:10027000809339124091DC0C29EC31E0429FC0019F
:10028000439F900D11248A55914FFC01EB58FF4F6D
:100290002FE7208334962EE12083349620838F57D6
:1002A0009F4FFC012083089520913217222359F09B
:1002B000213061F42DB3209330173DB320913117D5
:1002C000209523232DBB8CBD9DBD08952FB7F89499
:1002D00020933017F8CF8EBD00000DB407FEFDCF80
:1002E0008EB5089590913217992339F08091301787
:1002F000913011F48DBB08958FBF0895FC011482D5
:10030000138281E06115710509F480E08083918199
:10031000891741F09281911107C0672B11F091E08C
:100320009383828381830895672BD9F791E0948327
:10033000F8CF8F929F92AF92BF92CF92DF92EF92BF
:10034000FF92CF93DF936091251470912614882338
:1003500061F0CB01DF91CF91FF90EF90DF90CF90D4
:10036000BF90AF909F908F90089520912804309176
:100370002904E7E6F3E150E040E0B1E0812C912C64
:10038000540183941382EB01042E02C0D695C795C5
:100390000A94E2F78C2F817080839181891769F02C
:1003A000928191110AC0C0FF08C0B38396819F5FFC
:1003B0009683913079F09230D1F081834F5F5F4F17
:1003C0003B9640315105F1F63093290420932804DF
:1003D000B901BFCF75016401042E04C0CC0CDD1C33
:1003E000EE1CFF1C0A94D2F72C293D29E6CF168279
:1003F00075016401042E04C0CC0CDD1CEE1CFF1C36
:100400000A94D2F7C094D0942C213D21D6CF2F92BC
:100410003F924F925F926F927F928F929F92AF9294
:10042000BF92CF92DF92EF92FF920F931F93CF93E1
:10043000DF9300D000D01F92CDB7DEB720902514F7
:10044000309026147090DB0C6091F5010AEF060FD6
:100450000B8314EF160F1C83209144122A83A62FBE
:10046000B0E0E7E6F3E17091DC0C29EC31E0729F3B
:10047000A001739F500D11249D0174E0220F331FC2
:100480007A95E1F7420F531F4A55514F30E020E073
:1004900071E0C12CD12C7601C3948D0107551E4FFC
:1004A00048018D0107561E4F5801022F1382D101BA
:1004B000022E02C0B695A7950A94E2F71A2F117082
:1004C000198310836180161539F16280611022C092
:1004D000A0FF20C07383DC01022E02C0B695A79551
:1004E0000A94E2F7A170BB276F3041F01B811230F4
:1004F00028F01C81123010F0611143C0AB2B61F168
:10050000A2E0A683A681A13049F1A23009F4B4C0CB
:1005100077247394B981B1832F5F3F4F3B9620318D
:10052000310519F67092DB0C0F900F900F900F9021
:100530000F90DF91CF911F910F91FF90EF90DF907F
:10054000CF90BF90AF909F908F907F906F905F9073
:100550004F903F902F9008957683D4CF2601370196
:1005600004C0440C551C661C771C0A95D2F78429DC
:100570009529D901AB5BBF4F3D01640E751ED401B7
:1005800071C01A81112309F442C0AB2BB1F1D9011A
:10059000AB5BBF4FA40FB51FAC91A7FF2BC01A2FA9
:1005A0001F77D5017C90711610F5B3E0B683A68154
:1005B000A23029F1A33009F45FC0A13009F0A8CF1F
:1005C0002601370104C0440C551C661C771C0A9593
:1005D000D2F784299529D901AB5BBF4F3D01640E49
:1005E000751ED5010C910058D3010C9391CF12E0E8
:1005F0001683DDCFA3E0A683DACF7683D8CFD901E7
:10060000AB5BBF4F3D01640E751ED401EBCFAB2B2E
:1006100089F1D901AB5BBF4FA40FB51F1C9117FD2A
:1006200026C0D5017C907116F8F4B3E0B683A6819C
:10063000A23009F49ECFA330F9F0A13009F068CFC1
:100640002601370104C0440C551C661C771C0A9512
:10065000D2F784299529D901AB5BBF4F3D01640EC8
:10066000751ED5010C91C0CF12E01683E0CFA3E038
:10067000A683DDCF7683DBCF16822601370104C047
:10068000440C551C661C771C0A95D2F74094509474
:10069000842195213DCF6F927F928F929F92AF924E
:1006A000BF92CF92DF92EF92FF920F931F93CF935F
:1006B000DF9360918412709185127093831260931E
:1006C0008212E0912514F0912614F0938512E093A4
:1006D00084126E177F0709F468C080905B12209126
:1006E000C50181E090E08C0102C0000F111F2A9526
:1006F000E2F7E0901302F09014022091C6015C0131
:1007000002C0AA0CBB1C2A95E2F74091B00C509194
:10071000B10CC0911502D091160220915C1230915B
:100720005D1290E080E0CC24C394D12CDF01082E30
:1007300002C0B695A7950A94E2F7A0FF2AC0DB0194
:10074000082E02C0B695A7950A94E2F7A0FD21C035
:10075000DC01A754BE4FAC91360102C0660C771C79
:10076000AA95E2F7D30146255B27DC01AA0FBB1F40
:10077000A550BE4F0D90BC91A02D2A273B27882065
:1007800041F0ACE07A2E87111FC04A255B252C274B
:100790003D2701968031910549F65093B10C409365
:1007A000B00C30935D1220935C12DF91CF911F91BA
:1007B0000F91FF90EF90DF90CF90BF90AF909F9000
:1007C0008F907F906F900895ADE08A13E2CF40271D
:1007D00051272E253F25DDCF0F931F93CF93DF9316
:1007E000609180127091811270937F1260937E12DB
:1007F000E0912514F0912614F0938112E093801279
:100800006E177F0709F441C04091420450914304A0
:10081000209144043091450490E080E0C1E0D0E0B4
:10082000DF01082E02C0B695A7950A94E2F7A0FF53
:1008300020C0DB01082E02C0B695A7950A94E2F706
:10084000A0FD17C0DC01A754BE4FAC918E0102C0C1
:10085000000F111FAA95E2F7D80140275B27DC01A2
:10086000AA0FBB1FA550BE4F0D90BC91A02D2A27EB
:100870003B2701968031910599F6509343044093AC
:1008800042043093450420934404DF91CF911F919B
:100890000F91089581E00E94990130E020E0AC01C1
:1008A000022E02C0569547950A94E2F740FF02C017
:1008B000822F08952F5F3F4F2031310581F7089532
:1008C00081E00E949901AC0130E020E090E0BA01A3
:1008D000022E02C0769567950A94E2F760FF05C084
:1008E000913011F4822F089591E02F5F3F4F203116
:1008F000310569F780E00895E7E6F3E116823B965B
:1009000084E1E731F807D1F71092571310924113A1
:100910001092361310924C131092C8120895811140
:100920000C94340110923A12109239124091DC0C5E
:1009300029EC31E0429FC001439F900D11248A555C
:10094000914FFC01EB58FF4F20E520833496208324
:10095000349620838F579F4FFC012083089584B1E4
:10096000886D84B98AB1806F8AB981B18C6E81B982
:10097000129A61E088E10E94814761E089E10E946A
:10098000814761E08AE10E94814760E08BE10E943B
:10099000814760E080E00E94814760E081E00E9442
:1009A00081470E9484438FEF0E949A4383E397E13B
:1009B0000C9441440F931F930E9484460091171496
:1009C000109118142091191430911A14601B710B96
:1009D000820B930B663071058105910508F44BC0BD
:1009E0000E9484466093171470931814809319140E
:1009F00090931A1480919004909191040E94540154
:100A00005C9A80E00E946B0180931B1480E00E943E
:100A10006B0180931D1480E00E946B0180931F1472
:100A200080E00E946B018093211480E00E946B01A2
:100A3000809323145C980E94720183B182FB882703
:100A400080F980938B04EBE1F4E130E020E09081C9
:100A50004181941304C0D901AB5DBB4E9C932F5FC1
:100A60003F4F32962530310591F790918C048913D0
:100A700002C080938A0480919004909191040E9416
:100A800054015C9A80E00E946B0180931C1480E00A
:100A90000E946B0180931E1480E00E946B01809382
:100AA000201480E00E946B018093221480E00E9459
:100AB0006B01809324145C980E94720183B182FBC5
:100AC000882780F980938C041F910F9108950F93CC
:100AD0001F93CF93DF930E94DA04C0912714D09123
:100AE000281410912914C4FB882780F980938A1256
:100AF000C3FB882780F9809389126C2F647070E0A3
:100B00008BE892E10E947E016D2F687070E086E9AB
:100B100092E10E947E016D2F607870E081EA92E19F
:100B20000E947E016D2F607470E085E293E10E9467
:100B30007E016D2F607270E08AE193E10E947E0178
:100B40006C2F607870E08CE593E10E947E016C2F41
:100B5000617070E081E593E10E947E016D2F60710C
:100B600070E08BE393E10E947E016C2F627070E075
:100B700080E393E10E947E016C2F607470E083EE4D
:100B800092E10E947E01C0726C2F70E084E093E1DC
:100B90000E947E016D2F647070E088ED92E10E94EA
:100BA0007E016D2F627070E08DEC92E10E947E01FB
:100BB000612F627070E08FE093E10E947E016D2FE3
:100BC000617070E08EEE92E10E947E01612F617093
:100BD00070E082EC92E10E947E01612F647070E00F
:100BE00087EB92E10E947E0160918A0470E086E4C6
:100BF00093E10E947E0160912514709126148CEA85
:100C000092E10E947E011092FD121092FC1281E08E
:100C1000912F987013FF80E08093F9122091FA12BF
:100C2000821711F18091FB1281110FC0992369F095
:100C300081E08093FC120E948446609300137093BD
:100C4000011380930213909303138091F9129091F2
:100C5000FB12992339F0811105C091E09093FD12A8
:100C60001092FE128093FB128091F9128093FA1277
:100C70008091FB128823B1F00E94844600910013FA
:100C8000109101132091021330910313601B710B1B
:100C9000820B930B693E73408105910518F081E04A
:100CA0008093FE12E7E6F3E1138214823B9684E11F
:100CB000E731F807C9F7DF91CF911F910F910895A0
:100CC000FF920F931F93CF93DF93082FF92ED62F08
:100CD000172FC42F80919004909191040E94540189
:100CE0002C988F2D0E946B01802F0E946B01812F09
:100CF0000E946B018D2F0E946B018C2F0E946B0153
:100D00002C9ADF91CF911F910F91FF900C9472015B
:100D1000CF93DF93EC0180919004909191040E9415
:100D200054012B988D2F0E946B018C2F0E946B0118
:100D30002B9A0E947201D093AB0CC093AA0CDF9146
:100D4000CF910895CF93DF93803808F08FE790E23A
:100D5000899FE0011124D0618091900490919104C9
:100D60000E9454015D988D2F0E946B018C2F0E9470
:100D70006B015D9ADF91CF910C9472018091920486
:100D8000909193040E9454015C9A80E00E946B0150
:100D900080E00E946B0180E00E946B0180935C0404
:100DA00080E00E946B0180E00E946B0180935B04F5
:100DB0005C980C9472010F931F93CF93C82F80916E
:100DC0005A04882361F00E9484466093240470933F
:100DD0002504809326049093270410925A040E94BD
:100DE000844600912404109125042091260430911A
:100DF0002704AB01BC01401B510B620B730B8C2F02
:100E000090E0B0E0A0E0481759076A077B0738F088
:100E1000129905C080915A04811101C0129ACF9194
:100E20001F910F91089523B1217020938F0433B146
:100E3000327030938E04211108C040918D044423F8
:100E400021F0332329F0860F971F20938D040895F6
:100E500030918A12332389F030918904313049F07E
:100E600010F0323091F78A3091057CF3861B970B96
:100E7000ECCF80319105D4F7E8CF0097B9F7E5CFF3
:100E80000F931F93CF93DF938091B2008093490417
:100E9000C2E0D0E001E010E098010C2E02C0220F69
:100EA000331F0A94E2F78091AA0C9091AB0C822335
:100EB0009323892BF1F080914904FE01E65BFB4FFF
:100EC0009081891B8032A8F08091AA0C9091AB0C84
:100ED00020953095822393230E9488068091AA0C46
:100EE0009091AB0C8D7F892B21F410927D12109282
:100EF0007C122196CC30D10579F6DF91CF911F91EC
:100F00000F910895809159128111DDC00E94DA0479
:100F10008091271483FB882780F980938912609140
:100F20002814607170E08BE393E10E947E01609170
:100F30002914647070E087EB92E10E947E01609159
:100F40002914617070E082EC92E10E947E01609150
:100F50002914627070E08FE093E10E947E0160913D
:100F60002714617070E081E593E10E947E01609139
:100F70008A0470E086E493E10E947E018091BA12B7
:100F80008823D9F080916A12882309F462C081E035
:100F900080936B1210926A1280916B1241E060E0B4
:100FA000882309F45DC08AE294E00E9437456FE22D
:100FB00072E08AE294E00E948D4A8091C5128823F3
:100FC000D9F080916B12882309F451C010926B12F2
:100FD00081E080936A1280916A1241E060E0882388
:100FE00009F44AC08AE294E00E94374561E572E064
:100FF0008AE294E00E948D4A80913E13882339F062
:1010000081E090914604911180E0809346048091A4
:101010006A128823C1F10E944B03809154138823E4
:1010200051F08091B00C9091B10C21E08227909307
:10103000B10C8093B00C80914813882309F443C00D
:101040001092B10C1092B00C10925D1210925C12C2
:10105000089580916B1291E0892780936B129CCF49
:101060008AE294E00E94374560E472E0A2CF80916A
:101070006A1291E08927ADCF8AE294E00E94374559
:1010800060E472E0B5CF80916B128823E1F00E949A
:10109000EC0380915413882351F080914204909185
:1010A000430421E08227909343048093420480917B
:1010B0004813882341F01092430410924204109286
:1010C000450410924404089550916B12E0916A1205
:1010D00080915A126091460470E0762F66277295CF
:1010E000707F782B852F90E0982F88279295990F05
:1010F000907E682B792B8E2F90E090E4899F902D25
:1011000088271124682B792B809111139091591203
:10111000892B90E09927869597958827682B792BBE
:1011200070937612609375124091771220917C1221
:1011300030917D12EE2321F19091B00C9170492BEA
:1011400080915C1290915D12822B932B0E9460061D
:1011500082B182FB882780F991E08927909146042B
:10116000892390918912990F892B8093771280910E
:101170007C1290917D1290934804809347040895C7
:10118000C901552319F3909142049170492B809124
:10119000440490914504D8CF60E472E08AE294E080
:1011A0000C948D4A0F931F93CF93DF93D0E0C0E050
:1011B000082F10E0C017D1073CF461EA8AE294E0FE
:1011C0000E94954A2196F6CFDF91CF911F910F9102
:1011D000089540E064E08AE294E00E94374562E6C8
:1011E00072E08AE294E00C948D4A40E060E08AE28A
:1011F00094E00E9437456BE672E08AE294E00E9438
:101200008D4A41E060E08AE294E00E9437450E9406
:10121000CC0841E060E08AE294E00E9437456CE748
:1012200072E08AE294E00E948D4A41E061E08AE245
:1012300094E00E9437458EE00E94D20841E06FE0C2
:101240008AE294E00E9437456EE772E08AE294E019
:101250000E948D4A2091DC0C89EC91E0289FF001DE
:10126000299FF00D1124E259FF4E60816F5F41E02C
:101270008AE294E00E9437456BED8AE294E00C9498
:10128000954A40E060E08AE294E00E94374560E8D9
:1012900072E08AE294E00E948D4A41E060E08AE2D6
:1012A00094E00E9437450E94CC0841E060E08AE269
:1012B00094E00E94374561E972E08AE294E00C9480
:1012C0008D4A40E060E08AE294E00E94374562EA9D
:1012D00072E08AE294E00E948D4A41E060E08AE296
:1012E00094E00E9437450E94CC0841E060E08AE229
:1012F00094E00E94374563EB72E08AE294E00C943C
:101300008D4A2F923F924F925F926F927F928F926F
:101310009F92AF92BF92CF92DF92EF92FF920F9384
:101320001F93CF93DF93809189128093671240912E
:101330008A124093681260918D12609366125091E8
:101340000613509365122091321320936412E0919A
:10135000E512E0936312982F990F84E0489F800173
:101360001124A8E06A9FB0011124B0E15B9FE00165
:10137000112480E2E89FF0011124A0E42A9F90014B
:101380001124A0914712892F802BAA2309F4F9C0B8
:101390008068862B8C2B8E2B822B809377128091EA
:1013A000F6019091F7018130910509F4F6C0D1E082
:1013B000009709F0D0E0D09373128330910509F4BF
:1013C000EFC0E1E08230910509F0E0E0E0936F12B8
:1013D000F09127138430910511F4F0911D02F093E0
:1013E0006E1220919504222309F4DDC021E02093A0
:1013F00072122093711230911C1330936D12709100
:10140000361301E010E002C0000F111F7A95E2F7D9
:101410000093621221E060914113611101C020E04C
:1014200020936C12B091F5018330910531F4BD30F9
:1014300021F420911D0220936C12C091B912C09327
:101440006B12442319F021E0BC3079F02091D80CC4
:10145000211109C020919C04211105C020915A122C
:10146000222309F4A7C020911D0220936112853028
:10147000910509F0A2C021E020936A12209159122F
:10148000222309F49DC020911D02209369126091CE
:10149000721220E4629FB0011124E090711220E8E2
:1014A000E29E700111246E297F2920917012622B17
:1014B00020916112722B232F30E0322F2227330F1D
:1014C000330F330F262B372B60916C1270E0762F81
:1014D00066277295707F262B372BEC2EF12C60E25D
:1014E000E69EF02CEE2411242E293F2960916A12E9
:1014F00070E070E4679F702D66271124262B372B30
:101500006091691270E07727669577956627622B60
:10151000732B000F111F0E7F1170602B712B10E2C7
:10152000D19F90011124622B732B2E2F30E0322F8C
:101530002227330F622B732B2F2F30E0322F2227DD
:10154000330F330F622B732B7093761260937512E7
:10155000B03108F03EC0EB2FF0E0EF54F54F0C94A3
:101560007E4C2B0BE90A190B1C0B1F0BE90A250BF0
:10157000280BE30A100B130B160B2B0B2B0B220B58
:10158000220B90911D028160862B8C2B8E2B822B3F
:10159000979599279795892B00CFD0911D020BCF56
:1015A000E0911D0213CF2091DA1220937212209144
:1015B000CF121FCF109261125ACF10926A125ECFD3
:1015C0002091111362CF23E030E03093601220931A
:1015D0005F128230910509F49EC008F041C0009767
:1015E00009F457C08130910509F46BC0409177121E
:1015F00080917C1290917D12DF91CF911F910F917C
:10160000FF90EF90DF90CF90BF90AF909F908F9022
:101610007F906F905F904F903F902F900C9460065A
:101620002CE030E0D2CF20E330E0CFCF20EC30E030
:10163000CCCF20E033E0C9CF20E034E0C6CF20E0BB
:1016400038E0C3CF20E030E3C0CF20E030E8BDCFAA
:1016500020E030E4BACF1092601210925F12B9CF3E
:101660008530910508F4D1C0059709F0BFCF80916E
:101670005C1290915D1290937D1280937C12809108
:101680004813882309F4B2CF10925D1210925C12B5
:10169000ADCF3091A004AA23A9F120911C02409162
:1016A0004B1281E090E002C0880F991F3A95E2F753
:1016B00030E002C0220F331F4A95E2F782279327BA
:1016C0000BC0CC2371F02091431281E090E002C066
:1016D000880F991F2A95E2F790937D1280937C12D0
:1016E00085CF2091F012222319F02091A004EFCF92
:1016F000309142123F70AA2329F020911C024091A0
:101700004B12D1CF80911D0290E002C0880F991F2B
:101710003A95E2F7E1CFC111D6CF2091D20CB0912A
:101720004112BF70A1112EC030E04091D30C4F7018
:1017300090E080E0F0E0E0E050E0812C912C54015A
:101740008394EC01C40FD51F7501640104C0CC0C57
:10175000DD1CEE1CFF1CCA95D2F7EC29FD29019671
:101760002817390774F780911D0291E0892790E0CE
:1017700002C0880F991FBA95E2F7809590958E2345
:101780009F23AACF2223A1F14091D30C4F7090E068
:1017900080E0F0E0E0E030E050E0812C912C54015A
:1017A00083942817390784F0EC01C40FD51F750105
:1017B000640104C0CC0CDD1CEE1CFF1CCA95D2F7E2
:1017C000EC29FD290196EDCF80911D0220911C028C
:1017D00040914B1291E09827892F90E002C0880F2A
:1017E000991FBA95E2F7809590958E239F2360CF3D
:1017F00080911D0220911C0240914B1290E002C08A
:10180000880F991FBA95E2F753CF442311F18091C5
:101810005E1220915F1230916012883038F0309360
:101820007D1220937C1210925E12E0CEBF3051F4F4
:1018300025753D7F30937D1220937C128F5F8093BE
:101840005E12D4CE909144129111F4CF25753D7D56
:10185000F1CF552361F180915E12883038F08FE727
:101860009FEF90937D1280937C12DDCF9091DC0CE2
:1018700029EC31E0929FF001939FF00D1124EA557D
:10188000F14F43814150550B21E030E0D90102C0B6
:10189000AA0FBB1F4A95E2F7AD019481985F02C081
:1018A000220F331F9A95E2F72A2B352BC3CFAA2399
:1018B00009F4B7C08B2F90E0009144124091DC0CEA
:1018C0005C0124E0AA0CBB1C2A95E1F729EC31E06D
:1018D000429FF001439FF00D1124AE0EBF1EB0E0F9
:1018E000A0E050E040E030E020E0C12CD12C7601B7
:1018F000C394EC01CC0FDD1FCE0FDF1FC555D14FB8
:10190000FC01E756FE4F1F01C9018A0D9B1D855141
:10191000914FFC011081002309F444C017FF5EC001
:1019200088819981022E02C0969587950A94E2F7E4
:10193000817099271F77F1019080911608F03FC0C0
:10194000892B61F026013701022E04C0440C551C7E
:10195000661C771C0A94D2F7442955292F5F3F4F04
:101960002031310589F650937B1240937A12B0935F
:101970007912A093781220915E1280911C02283077
:10198000F0F120914B1290E002C0880F991F2A9528
:10199000E2F7A827B9274A2B5B2B50937D1240937F
:1019A0007C1241CF17FD1AC088819981022E02C096
:1019B000969587950A94E2F781709927BCCF892B79
:1019C00069F226013701022E04C0440C551C661C26
:1019D000771C0A94D2F7A429B529C0CF2601370174
:1019E000022E04C0440C551C661C771C0A94D2F7C6
:1019F0004094509444215521A421B521AFCF30917A
:101A00004B1290E002C0880F991F3A95E2F74827E1
:101A1000592750937D1240937C122F5F20935E12C2
:101A2000E5CDC11150CEA091D20CB0E09091D30C75
:101A30009F7050E040E0F0E0E0E0292F30E0812CA2
:101A4000912C54018394CA01820F931F7501640184
:101A500004C0CC0CDD1CEE1CFF1C8A95D2F7EC29CF
:101A6000FD294F5F5F4FA417B5076CF780911D02EA
:101A700091E0892790E0209142122F7002C0880FD8
:101A8000991F2A95E2F779CE109287041092860466
:101A9000109285040895645F282F40E08EEF94E152
:101AA0000C94C140809188048823B1F1109288047D
:101AB000909148122091DC0C30E0809152129923D1
:101AC000A9F0E091481269EC71E0269FA001279FE0
:101AD000500D369F500D11244A55514FE40FF52FEC
:101AE000F11DEC5BFE4F60810C944B0D49EC51E015
:101AF000249FF001259FF00D349FF00D11249F01CC
:101B00002A55314FF901EB53FE4FE081E20FF32FDD
:101B1000F11DEB5BFE4FE7CF0895645F282F8EEF3A
:101B200094E10C94B74061EA7FE18EEF94E10E946A
:101B3000913E68E271E08EEF94E10E94973E6CE284
:101B400071E08EEF94E10E94A33E60E371E08EEFBE
:101B500094E10C949D3E68EF70E08EEF94E10E945A
:101B6000A93E6AEF70E08EEF94E10E94A93E6CEF0F
:101B700070E08EEF94E10E94A93E6BEF70E08EEF73
:101B800094E10C94A93E6CED72E18EEF94E10E9419
:101B90008B3E67E972E18EEF94E10C94853E60E93B
:101BA00070E08EEF94E10E94A93E60E870E08EEF55
:101BB00094E10C94A93E2091501240E06BE78EEF27
:101BC00094E10C94CB403F924F925F926F927F9240
:101BD0008F929F92AF92BF92CF92DF92EF92FF923D
:101BE0000F931F93CF93DF934C01D0E0C0E0A9EC9B
:101BF0004A2E55245394BFE63B2EC4010C2E02C03E
:101C0000969587950A94E2F780FF71C0CE30D10592
:101C100024F08091B00C85FD6EC0CE018C5B9E4F90
:101C20003C01FC018081882309F461C0E0914B12E2
:101C30008091DC0C849D9001859D300D1124CE0196
:101C4000F4E0880F991FFA95E1F7820F931F8A55E8
:101C5000914FE80FF92FF11DEB5BFF4F8081882337
:101C600009F445C0FE01ED59FB4F6081CE30D1052E
:101C700014F060917104FE01E755FE4FE080F12CF5
:101C800010E000E0FE01E756FE4F208130E050E01A
:101C900040E070E090E080E01F921F921F923F9220
:101CA000EFE5AE2EB12CC12CD12C0E94A74B462FB4
:101CB00020914B128091DC0C849DF001859DF00DEC
:101CC0001124EA55F14F858D968D02C09695879522
:101CD0002A95E2F70F900F900F900F9080FD4FE73D
:101CE000F30160816C50809150120E948D0D909292
:101CF0007404809273042196C031D10509F07DCF20
:101D0000DF91CF911F910F91FF90EF90DF90CF90D7
:101D1000BF90AF909F908F907F906F905F904F900B
:101D20003F9008950F931F93CF93DF93D0E0C0E0CF
:101D300009EC11E080917304909174040C2E02C0A0
:101D4000969587950A94E2F780FF2DC0CE30D10595
:101D500024F08091B00C85FD26C0FE01EC5BFE4FA7
:101D60006081662301F1E0914B128091DC0C809F31
:101D70009001819F300D1124CE0144E0880F991FFE
:101D80004A95E1F7820F931F8A55914FE80FF92F7B
:101D9000F11DEB5BFF4F8081882329F06C5080910F
:101DA00050120E944B0D2196C031D10519F6DF91DA
:101DB000CF911F910F9108951F920F920FB60F921E
:101DC00011240BB60F922F933F934F935F936F9312
:101DD0007F938F939F93AF93BF93EF93FF93109253
:101DE000B1001092B2008091AC0C9091AD0C0E94A9
:101DF00088060E94920EFF91EF91BF91AF919F9143
:101E00008F917F916F915F914F913F912F910F90A3
:101E10000BBE0F900FBE0F901F9018958FE090E0B3
:101E20000E94EE465E9885E090E00E94EE465E9A43
:101E30000895CF92DF92EF92FF920F931F93CF936B
:101E4000DF93C9E8D1E003E911E0A9ECEA2EFF2411
:101E5000F39480913D1290913E122991422F50E0CF
:101E600002C0969587952A95E2F780FF60C0209181
:101E7000DC0C30E0E0914B122E9DB0012F9D700DD7
:101E80003E9D700D1124CA01F4E0880F991FFA9548
:101E9000E1F7860F971F8A55914FE80FF92FF11D33
:101EA000EB5BFF4FA081A7FDAF772E9DF0012F9D2B
:101EB000F00D3E9DF00D1124EA55F14F658D768DA4
:101EC00080914B126B0102C0D694C7948A95E2F7B9
:101ED000C60190E080FF05C0E853FE4F9081990F46
:101EE000990F4D595B4F9A0FFA01908380914B12D5
:101EF00002C0769567958A95E2F780E060FF0CC096
:101F00002E9DF0012F9DF00D3E9DF00D1124E25904
:101F1000FF4E8081880F880F8A0F0E94A20682B12F
:101F20008F71F8019081892B82B90E940E0F0F5F8B
:101F30001F4FF1E0CE38DF0709F08BCFDF91CF9153
:101F40001F910F91FF90EF90DF90CF9008951F9217
:101F50000F920FB60F9211240BB60F922F933F934F
:101F60004F935F936F937F938F939F93AF93BF93A1
:101F7000EF93FF93109291001092950010929400AD
:101F80000E94190F80913D1290913E124091AC0C2D
:101F90005091AD0C2091B00C3091B10C2095309542
:101FA00082239323842B952B0E94880680913D12D7
:101FB00090913E124091AC0C5091AD0C2091B00C20
:101FC0003091B10C2095309582239323842B952B4F
:101FD0000E94E30D85E08093B10010923E121092B2
:101FE0003D12FF91EF91BF91AF919F918F917F91A2
:101FF0006F915F914F913F912F910F900BBE0F907A
:102000000FBE0F901F9018958FE090E00E94EE4653
:102010005F9885E090E00E94EE465F9A08954F92A7
:102020005F927F928F929F92AF92BF92CF92DF92F8
:10203000EF92FF920F931F93CF93DF9380913F1204
:1020400090914012C091B00CD091B10CC095D09538
:10205000C823D923FEE8AF2EF1E0BF2EA3E9CA2E94
:10206000A1E0DA2EB8E98B2EB1E09B2E860189EC37
:10207000E82EFF24F394D5018D915D01682F70E067
:102080009E01082E02C0369527950A94E2F720FD9E
:1020900005C0D7FF5EC08E3009F05BC04091DC0CFC
:1020A00050E04E9DF0014F9DF00D5E9DF00D11240E
:1020B000EA55F14F258D368DD7FFF3C08E3009F0EC
:1020C000F0C0A0914B12AE0FBF2FB11DAB5CBE4F45
:1020D0009C9180914B12B90102C0769567958A95C3
:1020E000E2F780E060FF05C0E853FE4F8081880F73
:1020F000880F890F80937104E0914B124E9DC001AF
:102100004F9D900D5E9D900D1124AC014A55514F8D
:10211000E40FF52FF11DEB5CFE4F908180914B1287
:1021200002C0369527958A95E2F780E020FF06C029
:1021300048535E4FFA018081880F880F890F0E94F3
:10214000A20682B18F7190919501892B82B90E946C
:1021500004100F5F1F4F8016910609F08CCF09E81D
:1021600011E0AEE88A2EA1E09A2EB9ECAB2EBB248A
:10217000B394EE24E394F12CF801A1918F016A2F1E
:1021800070E0CE010A2E02C0969587950A94E2F778
:1021900080FF70C02091DC0C30E0E0914B122A9D52
:1021A000A0012B9D500D3A9D500D1124CB01F4E060
:1021B000880F991FFA95E1F7840F951F8A55914F63
:1021C000E80FF92FF11DEB5BFF4F808187FF11C0F6
:1021D000E0913D12F0913E12A70102C0440F551F3D
:1021E000AA95E2F74E2B5F2B50933E1240933D127F
:1021F0008F772A9DF0012B9DF00D3A9DF00D112453
:10220000EA55F14F458D568D90914B12DA0102C07F
:10221000B695A7959A95E2F790E0A0FF05C0E85320
:10222000FE4F9081990F990F6D597B4F980FDB01ED
:102230009C9390914B1202C0569547959A95E2F760
:1022400090E040FF0CC02A9DF0012B9DF00D3A9DBF
:10225000F00D1124E259FF4E9081990F990F890FCB
:102260000E94A20682B18F71F6019081892B82B9FA
:102270000E940E0FFFEFCF1ADF0A8016910609F0B9
:102280007BCFDF91CF911F910F91FF90EF90DF9067
:10229000CF90BF90AF909F908F907F905F904F9026
:1022A000089570904B12CB01E4E0880F991FEA95D6
:1022B000E1F74E9DD0014F9DB00D5E9DB00D1124F4
:1022C000FC01EA0FFB1FEA55F14FE70DF11DEB5B37
:1022D000FF4F7080E0914B12290102C05694479441
:1022E000EA95E2F740FE35C0A259BF4EEC91EE0FE1
:1022F000EE0F6D597B4FE70DDB01EC93E0914B1234
:102300004E9DB0014F9D700D5E9D700D1124860F86
:10231000971F8A55914FE80FF92FF11DEB5BFF4F87
:10232000908180914B1202C0369527958A95E2F7ED
:1023300080E020FF06C062597F4EFB018081880F3C
:10234000880F890F0E94A20682B18F71D8019C91DB
:10235000FCCEE0E0CECFE82FF0E0EC5AFE4F6083F9
:10236000EEEFE80FEE3008F060C0862FF0E0E554A5
:10237000FE4E0C947E4CE811EF11F9111512071264
:102380000E12C911D311DA11E11115121512001232
:1023900000120E94A20682B18F7190919501892B43
:1023A00082B90C940E0F0E94A20682B18F71909197
:1023B0009401F5CF0E94A20682B18F719091930192
:1023C000EECF0E94A20682B18F7190919601E7CF65
:1023D0000E94A20682B18F7190919701E0CF0E9476
:1023E000A20682B18F7190919401892B82B90C94CD
:1023F00004100E94A20682B18F7190919301F5CFD3
:102400000E94A20682B18F7190919501EECF0E9439
:10241000A20682B18F7190919701E7CF0E94A20628
:1024200082B18F7190919601E0CF0895EF92FF9263
:102430000F931F93CF93E82EF12C87010B581B4F5E
:10244000F8019081911139C02091B00C3091B10CFC
:10245000082E02C0369527950A94E2F720FD2DC07C
:10246000C82F0E94AB11CF3071F58091AA0C9091CA
:10247000AB0C8D7D80620E9488068091B2008093B3
:102480004F04809146048823A9F0F701EC5CFE4FCD
:10249000208181E090E002C0880F991F2A95E2F721
:1024A0002091470430914804822B932B90937D1206
:1024B00080937C1281E0F8018083CF911F910F916E
:1024C000FF90EF900895CE3031F48091AA0C909156
:1024D000AB0C8262D0CF2091AA0C3091AB0C81E082
:1024E00090E00E2C02C0880F991F0A94E2F7822B0D
:1024F000932B0E9488068091B200F701E65BFB4FA8
:102500008083BFCFE82FF0E0EB58FB4F1082209183
:10251000420430914304082E02C0369527950A9450
:10252000E2F720FF03C060E00C94AB110895909196
:102530005112981340C062526B3108F03CC0E62F34
:10254000F0E0EB55FD4E0C947E4CCB12C012C01245
:10255000CB12C312CD12C312C512CF12DB12DB1283
:10256000C712D112C712C712D512C912D312DB1269
:10257000DB12DB12DB12DB12DB12DB12DB12D712F7
:1025800088E00C94821289E0FCCF8AE0FACF8BE0DD
:10259000F8CF82E0F6CF83E0F4CF84E0F2CF8EE094
:1025A000F0CF8FE0EECF86E0ECCF87E0EACF8091EE
:1025B000420480FD129A0895962F642F442309F453
:1025C0008CC02091511228138CC0EEEDE90FE63338
:1025D00008F087C0F0E0E151FD4E0C947E4C3013C2
:1025E0002513251330132813321328132A133413F9
:1025F000711371132C1336132C132C1338132E1341
:102600003A1371137113711371133C137113711316
:1026100071133E133E133E133E133E133E133E13FF
:102620003E13711371137113711350135013501320
:102630005013501350135013501350135013501382
:102640005013501350135013501388E00C9416126B
:1026500089E0FCCF8AE0FACF8BE0F8CF82E0F6CFBA
:1026600083E0F4CF84E0F2CF8EE0F0CF8FE0EECFC6
:1026700087E0ECCF86E0EACF129A08959C539093BE
:102680004312809142129295907F682F6F70960F3F
:1026900090934112891729F181E08093DA0C089513
:1026A0001092D50C609143126295607F6854960F2A
:1026B000909341128091DC0C29EC31E0829FF00173
:1026C000839FF00D1124E459FF4E80818093D40C38
:1026D000809142129813E0CF089540E0692F0C9446
:1026E00097120895CF92DF92EF92FF920F931F936C
:1026F000CF93DF934091DC0C89EC91E0489F9001EF
:10270000499F300D1124F901EA55F14F81A192A1A1
:1027100043A154A1842B952B908B87878091F60140
:102720009091F701049709F458C01091F5010091B8
:10273000AE0190E080E0DF019196B396C12CD12CE0
:102740007601C3944D915C911197082E02C0569565
:1027500047950A94E2F740FF14C01E3091F4B70188
:10276000A601082E04C0440F551F661F771F0A9448
:10277000D2F740955095608171814623572351834C
:10278000408340815181082E02C0569547950A9496
:10279000E2F740FF1DC01F30D9F4B701A601082E93
:1027A00004C0440F551F661F771F0A94D2F7409547
:1027B00050956D917C9111974623572311965C9308
:1027C0004E93AC01420F531F4553504FEA0108830B
:1027D00001968031910509F0B5CFDF91CF911F911E
:1027E0000F91FF90EF90DF90CF9008952091DC0C37
:1027F00030E0E2EEFCE089EC91E0289FA001299F07
:10280000500D389F500D11244A55514F90E080E0F3
:10281000DA01A80FB91F15966D917C9161937193A0
:10282000029680329105A1F789EC91E0289FF00192
:10283000299FF00D389FF00D1124EA55F14F80814A
:102840008093DD0C81818093DE0C83818093E00C8A
:1028500084818093E10CDF01AB53BE4F6C91609398
:10286000A20EE853FE4F80818093A50EA2E2BEE047
:1028700090E080E0861748F4FC01EB5BFE4FE40F2C
:10288000F51F70817D930196F5CF49EC51E0249FAF
:10289000C001259F900D349F900D11248A55914FB2
:1028A0002DED3CE050E040E0BA016B5B7F4FF90159
:1028B000E60FF71F680F791FDB016C9160834F5F94
:1028C0005F4F4031510581F74096205F3F4FBDE09B
:1028D0002D3D3B0739F708952091DC0C30E0E2EE06
:1028E000FCE089EC91E0289FA001299F500D389FC2
:1028F000500D11244A55514F90E080E06191719143
:10290000DA01A80FB91F16967C936E93159702965D
:102910008032910599F789EC91E0289FF001299F79
:10292000F00D389FF00D1124EA55F14F8091DD0C28
:1029300080838091DE0C81838091E00C8383809181
:10294000E10C84836091A20EDF01AB53BE4F6C9308
:10295000E853FE4F8091A50E8083A2E2BEE090E096
:1029600080E0861748F47D91FC01EB5BFE4FE40F9D
:10297000F51F70830196F5CF4DED5CE069EC71E0D9
:10298000269FC001279F900D369F900D11248A55D8
:10299000914F30E020E0B9016B5B7F4FFC01E60F07
:1029A000F71F640F751FDB016C9160832F5F3F4F32
:1029B0002031310581F7405F5F4F4096BDE04D3DCE
:1029C0005B0739F708952091DC0C30E08091D50C3D
:1029D00081111AC049EC51E0249FC001259F900D40
:1029E000349F900D11248A55914FFC01E953FE4FFD
:1029F00040814093D20C8A539E4F40914212FC0179
:102A00008081481B4093D30C7091AE016091B0015E
:102A10005091AF0189EC91E0289FF001299FF00DC2
:102A2000389FF00D1124E555F04F90E080E040E52F
:102A3000A0A1A11101C070A3DF01A055B1096C9341
:102A400050975C934193DF01A15CB1094C93478798
:102A500001968031910561F789EC91E0289FF001A2
:102A6000299FF00D389FF00D1124EA55F14F818117
:102A7000803191F018F48C3049F00895883119F0C4
:102A8000803241F0089510923613089581E08093CA
:102A90003613089582E0FBCF83E0F9CF8F929F92A7
:102AA000AF92BF92CF92DF92EF92FF920F931F935C
:102AB000CF93DF932091DC0C89EC91E0289FA0015B
:102AC000299F500D11244A55514FFA0130E020E062
:102AD00001E010E0812C912C5401839416A215A2E0
:102AE000E801022E02C0CC0FDD1F0A94E2F790E04D
:102AF00080E0BC01660F771F640F751FDB01159620
:102B00006D917C916C237D23672B81F065A176A16B
:102B100075016401082E04C0CC0CDD1CEE1CFF1CEA
:102B20000A94D2F76C297D2976A365A3019680319A
:102B30009105F9F62F5F3F4F32962031310571F63E
:102B4000DF91CF911F910F91FF90EF90DF90CF9089
:102B5000BF90AF909F908F900895EF92FF920F9348
:102B60001F93CF93DF9381E08093DB0C2091DC0CEB
:102B700030E080918A12811165C089EC91E0289F34
:102B8000B001299F700D389F700D1124DB01AA55EB
:102B9000B14FAD0187E39EEF289F7001299FF00C94
:102BA000389FF00C112490E080E01596ED91FC9197
:102BB00016979F0136952795E0FF3FC0306816961F
:102BC0003C932E931597FA01EE0DFF1DE60FF71FAC
:102BD0009C0127563E4FE90128818F010B5B1F4F57
:102BE000E8013881EC5AFF4F231728F49C01275540
:102BF0003E4FE9012881208330E020E02F5F3F4FE6
:102C0000FA01E20FF31F8F010B5B1F4FE8011881E0
:102C1000EC5BFF4F10832F30310581F70196129640
:102C2000405F5F4F8031910509F0BFCFDF91CF91B9
:102C30001F910F91FF90EF90089516963C932E935D
:102C40001597DACF8091F50190E0DC01AA0FBB1F48
:102C500049EC51E0249FB001259F700D349F700D09
:102C60001124A60FB71FAA55B14F1596ED91FC91EF
:102C70001697AF0156954795E0FF45C050681696E8
:102C80005C934E931597FC01E756FE4F4081FC0183
:102C900054E0EE0FFF1F5A95E1F7E60FF71FEA55D4
:102CA000F14FDF01AB5BBF4F5C91EC5AFF4F451713
:102CB00020F4DC01A755BE4F4C91408369EC71E0D4
:102CC000269FA001279F500D369F500D112424E010
:102CD000880F991F2A95E1F7840F951F50E040E077
:102CE0004F5F5F4F9A01280F391F2A55314FF90165
:102CF000EB5BFF4F60812C5B3F4FF90160834F30EE
:102D0000510571F793CF16965C934E931597D6CFD6
:102D1000EF92FF920F931F93CF93DF9381E0809305
:102D2000DB0C2091DC0C30E080918A12811165C0AF
:102D300089EC91E0289FB001299F700D389F700D9C
:102D40001124DB01AA55B14FAD0187E39EEF289F07
:102D50007001299FF00C389FF00C112490E080E066
:102D60001596ED91FC9116979F01220F331FF7FFE7
:102D70003FC0216016963C932E931597FA01EE0DF5
:102D8000FF1DE60FF71F9C0127563E4FE9012881E2
:102D90008F010C5A1F4FE8013881EB5BFF4F23175F
:102DA00028F49C0127553E4FE901288120832FE01C
:102DB00030E021503109FA01E20FF31F8F010B5B64
:102DC0001F4FE8011881EA5BFF4F10832115310581
:102DD00081F701961296405F5F4F8031910509F0AF
:102DE000BFCFDF91CF911F910F91FF90EF9008958A
:102DF00016963C932E931597DACF8091F50190E0CB
:102E0000DC01AA0FBB1F49EC51E0249FB001259FB4
:102E1000700D349F700D1124A60FB71FAA55B14F26
:102E20001596ED91FC911697AF01440F551FF7FFD2
:102E300045C0416016965C934E931597FC01E7568A
:102E4000FE4F4081FC0154E0EE0FFF1F5A95E1F761
:102E5000E60FF71FEA55F14FDF01AC5ABF4F5C9107
:102E6000EB5BFF4F451720F4DC01A755BE4F4C919B
:102E7000408344E0880F991F4A95E1F769EC71E0BF
:102E8000269FA001279F500D369F500D1124840FBF
:102E9000951F4FE050E0415051099A01280F391F0A
:102EA0002A55314FF901EB5BFF4F60812A5B3F4FA1
:102EB000F90160834115510571F793CF16965C9324
:102EC0004E931597D6CFAF92BF92CF92DF92EF92EB
:102ED000FF920F931F93CF93DF9380914712882324
:102EE00049F080919504882329F01092950481E09F
:102EF000809388018091F1128823E9F08091F50197
:102F00008D30C9F48091F6019091F701039799F4FF
:102F100080919504C1E08C2780939504882341F02B
:102F20000E94520DC093F80110924712C09357139C
:102F300081E08093880180919504882309F42BC156
:102F400080913313882359F0809198018F5F8830E6
:102F500008F02CC18093980181E0809388018091D2
:102F6000E612882359F0809198018150883008F04A
:102F70001FC18093980181E0809388018091DB12CA
:102F8000882319F1809194048150833608F013C18D
:102F9000809394044091DC0CE091940429EC31E09E
:102FA000429FC001439F900D11248A55914FE80F15
:102FB000F92FF11DEB5BFE4F40E5608180915012CF
:102FC0000E948D0D81E0809388018091DC1288231E
:102FD000B9F04091DC0CE091940429EC31E0429F7F
:102FE000C001439F900D11248A55914FE80FF92F8E
:102FF000F11DEB5BFE4F6081809150120E944B0DE2
:103000008091D012882319F1809194048F5F8336C8
:1030100008F0D4C0809394044091DC0CE0919404B7
:1030200029EC31E0429FC001439F900D11248A5545
:10303000914FE80FF92FF11DEB5BFE4F40E56081EA
:10304000809150120E948D0D81E0809388018091C3
:10305000D1128823B9F04091DC0CE091940429EC62
:1030600031E0429FC001439F900D11248A55914F3A
:10307000E80FF92FF11DEB5BFE4F6081809150123C
:103080000E944B0D80918E12882329F01092940497
:1030900081E0809388018091F801882309F47BC046
:1030A000C7E6D3E110E000E08CE0C82E99ECE92EF1
:1030B000FF24F394BB24B39423E6A22ED02E809158
:1030C000861290918712002E02C0969587950A94D9
:1030D000E2F7282F217028833981231709F452C081
:1030E0002A8121113DC080FF3BC080919801602F53
:1030F0008C9D600D11242091DC0CE09194042E9D98
:10310000C0012F9D900D11248A55914FE80FF92F82
:10311000F11DEB5BFE4F608340E5809152120E94EF
:103120008D0D809194048F5F80939404B092DB0C9A
:10313000843610F0A09294048091DC0C90E02091F1
:10314000940421508E9DF0018F9DF00D9E9DF00DF9
:103150001124E559FF4E243698F52083B09288015A
:103160008A81882369F0888181110AC08091980141
:103170006D2D8C9D600D1124809152120E944B0D7B
:1031800088818A83888189830F5F1F4F2B96003146
:10319000110509F093CFDF91CF911F910F91FF900F
:1031A000EF90DF90CF90BF90AF90089587E0D2CEA0
:1031B00010929801E0CE10929404ECCE83E62ACFD0
:1031C0001082CCCFEFE6F0E080818D7F808310927B
:1031D000890010928800109281001092800008955A
:1031E000209153123091541240E6429FC001439FF8
:1031F000900D11246CE370E00E94154C9B0150E08F
:1032000040E060E874E88EE190E00E945F4C30930B
:103210008900209388000895CF93DF938091F60171
:103220009091F7012091F5012C3091F583309105B3
:1032300079F52091DC0C89EC91E0289FF001299F21
:10324000F00D1124E259FF4E808161E070E090E0C2
:103250000E94130799278E30910514F08DE090E0BD
:103260004091DC0C29EC31E0429FF001439FF00DCE
:103270001124E259FF4E808320911F042817E1F0AA
:1032800080931F0481E08093DB0C8093880114C03D
:10329000019709F0D9C0809111138111D5C0809197
:1032A00059128111D1C080918904813009F44CC038
:1032B00030F0823009F473C0DF91CF91089580918E
:1032C000A1049091A20420918A126AE070E0211179
:1032D00002C061E070E00E9413079093A204809303
:1032E000A1048091A1049091A204883E23E092075A
:1032F00010F087EE93E09093A2048093A1042091B4
:103300001D0430911E0428173907B1F290931E0452
:1033100080931D0460919D0442E054E0649F9001FD
:10332000659F300D11242B553B4F820F931FFC01DD
:1033300082818093411290914212891719F081E0A5
:103340008093DA0C81E0A1CF8091411290E020912E
:103350008A1260E170E0211102C061E070E00E9419
:103360001307809341128091411290E080389105BB
:1033700014F08FE790E0282F8093411240911B04B6
:1033800050911C048417950709F496CF90931C0460
:1033900080931B04809142122813D1CFD3CF809108
:1033A0009D04C2E0D4E08C9FF0018D9FF00D1124AC
:1033B000EB55FB4F8081918120918A126AE070E089
:1033C000211102C061E070E00E94130720919D046A
:1033D0002C9FF0012D9FF00D1124EB55FB4F918395
:1033E000808320919D0430E082E094E0289FF001EA
:1033F000299FF00D389FF00D1124EB55FB4F808174
:103400009181883EF3E09F0710F087EE93E042E061
:1034100054E0249FF001259FF00D349FF00D1124FE
:10342000EB55FB4F918380832091190430911A044E
:103430002817390709F440CF90931A048093190490
:1034400081E080939C0421CF80919504882309F426
:1034500004C180918904813009F449C010F182309F
:1034600009F4A9C0833009F027CF8091980161E069
:1034700070E090E00E94130799278830910514F0BE
:1034800087E090E08093980120911104309112041C
:103490008217930709F410CF9093120480931104BC
:1034A00051CF8091940490E020918A126AE070E0FC
:1034B000211102C061E070E00E9413078093940420
:1034C0008091940490E08436910514F083E690E0B6
:1034D0008093940420911704309118048217930765
:1034E00009F4EACE90931804809317042BCF20910F
:1034F000DC0CE0919404C9ECD1E02C9FC0012D9F1D
:10350000900D11248A55914FE80FF92FF11DEB5BB7
:10351000FE4F808190E020918A126CE070E02111D2
:1035200002C061E070E00E9413079091DC0CE09112
:1035300094049C9F90019D9F300D11242A55314F7A
:10354000E20FF32FF11DEB5BFE4F80834091DC0C0B
:1035500050E08091940490E029EC31E0429FF0012A
:10356000439FF00D529FF00D1124E80FF91FE55114
:10357000F04F208130E02038310514F02FE730E0A3
:1035800069EC71E0469FF001479FF00D569FF00DEA
:103590001124E80FF91FE551F04F208380911504A5
:1035A000909116042817390709F486CE3093160433
:1035B00020931504C7CE8091DC0CC9ECD1E08C9F20
:1035C000F0018D9FF00D1124E559FF4E808190E0B0
:1035D00020918A126AE070E0211102C061E070E07F
:1035E0000E9413079091DC0C9C9FF0019D9FF00DB1
:1035F0001124E559FF4E80832091DC0C30E089ECEA
:1036000091E0289FF001299FF00D389FF00D1124C3
:10361000E559FF4E808190E08436910514F083E6F1
:1036200090E049EC51E0249FF001259FF00D349F7C
:10363000F00D1124E559FF4E808320911304309141
:1036400014048217930709F437CE909314048093DF
:10365000130481E08093D80C18CE809159128823EE
:1036600009F4EEC080915812813009F092C0809127
:103670008904813009F448C058F1823009F468C0E7
:10368000833009F019CE8091511261E070E090E032
:103690000E94130761E070E0882339F0BC017727AE
:1036A0006131710514F060E170E060935112809116
:1036B0000A0490910B046817790709F4FDCD709303
:1036C0000B0460930A048EEF94E10E94823E3EC098
:1036D00080914E1261E070E090E00E9413079927FC
:1036E0008330910514F082E090E080934E12209197
:1036F0001004281709F4E0CD8093100481E0809332
:103700004F1280935A12C1CD61E070E08091551242
:10371000909156120E9413078B3F910510F08AEF8B
:1037200090E08E31910510F48EE190E09093561266
:103730008093551220910E0430910F048217930745
:1037400009F4BACD90930F0480930E0481E0D9CF91
:103750008091501261E070E090E00E94130788238E
:10376000A9F099278131910514F080E190E08093D0
:10377000501220910C0430910D048217930709F424
:103780009BCD90930D0480930C04E0CF81E090E0FA
:10379000EECF823009F090CD809189048130C1F163
:1037A00010F1823009F088CD8091521261E070E012
:1037B00090E00E941307882309F43FC099278131C4
:1037C000910514F080E190E080935212209106045C
:1037D000309107048217930709F46ECD9093070484
:1037E00080930604B3CF80914D1261E070E090E0C9
:1037F0000E94130721E0892B09F420E020934D1249
:1038000080910904281709F457CD209309049ECF0D
:1038100080915B1261E070E090E00E94130721E06C
:10382000892B09F420E020935B128091080428176B
:1038300009F442CD2093080489CF81E090E0C4CF01
:1038400061E070E080915312909154120E9413072E
:103850008F31910578F19093541280935312809197
:103860005312909154128A3F910530F08AEF90E004
:10387000909354128093531280915312909154124A
:1038800020910404309105048217930709F414CDA4
:1038900090930504809304040E94F0188091F6012F
:1038A0009091F701039709F04DCD8091111381118B
:1038B00049CD02CD8EE190E0CECFE1E8F0E010827C
:1038C0001092800080818A6080830E94F018EFE669
:1038D000F0E0808182608083089582E08093B00070
:1038E0001092B1001092B20099EF9093B3008093C0
:1038F000700008951092B00087E08093B10010929C
:103900007000089580914E12813061F018F082307D
:1039100089F008950E946D1C0E94AB0D0E94CF0D8E
:103920000C945D1C0E94E2180E946D1C0E94CF0D39
:103930000C94930D0E94E2180E947A1C0E94AB0D19
:103940000E94C30D10927D1210927C12109276127A
:1039500010927512109277120895109290001092A2
:10396000920010929100F894109295001092940099
:103970008091CB019091CC01909399008093980015
:10398000789482E08093710008952091980030919E
:1039900099004091DC0C89EC91E0489FF001499F2F
:1039A000F00D1124EA55F14FE481F0E0EE0FFF1F16
:1039B000E753FE4F808191812817390721F09093BA
:1039C0009900809398000895CF93DF9380917412AB
:1039D00021E082278093741280914C1290E060E382
:1039E00070E00E94294C892B29F480911D028227C6
:1039F00080931D0280914C129091DC0C29EC31E0F7
:103A0000929FF001939FF00D1124EA55F14F6181CF
:103A100066950E94094C911102C010921C0280917F
:103A20004C12837039F48091C80085FFFCCF88EF79
:103A30008093CE0080914E12811109C080914C126A
:103A4000837009F004C2119A81E08093610480912F
:103A50004712882309F4EDC180914C124091DC0C8F
:103A600050E029EC31E0429FF001439FF00D529F5E
:103A7000F00D1124EA55F14F3181632F0E94094C5A
:103A8000832F8695981305C080914A128F5F80938B
:103A90004A1289EC91E0489FF001499FF00D589F30
:103AA000F00D1124EA55F14F208180914A12281718
:103AB00010F410924A121092401210923F1280910C
:103AC0004C12632F0E94094C911103C081E0809336
:103AD000491280914C12E091381269EC71E0469FD6
:103AE000D001479FB00D569FB00D1124AA55B14F7C
:103AF00013964C914150550B440F551FE40FF52F71
:103B0000F11DEE0FFF1FE752FE4F40815181840FE0
:103B1000952F911D632F70E00E94294C892B09F08D
:103B20004EC180914912882309F449C1109249126B
:103B30008091381291E089278093381290931C026B
:103B400080915712813009F4ACC108F49AC18230D7
:103B500009F487C1833009F4ACC12091DC0C89ECF5
:103B600091E0289FA001299F500D112430E020E012
:103B7000A0914B1260913F1270914012F901EE0F2B
:103B8000FF1FE40FF51FEA55F14F8581968102C0B2
:103B900096958795AA95E2F781709927022E02C023
:103BA000880F991F0A94E2F7862B972B9093401267
:103BB00080933F122F5F3F4F20313105C9F640916E
:103BC0004B1220913F123091401280913912909106
:103BD0003A1202C0969587954A95E2F743E0880F1E
:103BE000991F4A95E1F788709927822B932B909320
:103BF000401280933F120E94C51C80913F12909109
:103C00004012892B09F470C00E940F102091B00C53
:103C10003091B10C80913F129091401296FF02C0FA
:103C200036FD53C180913F1290914012E90197FDFA
:103C30004FC14091DC0C50E0A0914B1269EC71E057
:103C4000469FF001479FF00D569FF00D1124EA5555
:103C5000F14F61A172A102C076956795AA95E2F72E
:103C600060FF02C036FF37C160914B12A9ECB1E092
:103C70004A9FF0014B9FF00D5A9FF00D1124EA5519
:103C8000F14F43A154A102C0569547956A95E2F7BA
:103C900040FD28C1C095D09580913F12909140126F
:103CA0002091AC0C3091AD0C8C239D23822B932B57
:103CB0000E94880680913F12909140122091AC0C96
:103CC0003091AD0C8C239D23822B932B0E94E30D0E
:103CD00085E08093B10080913D1290913E12892B36
:103CE00019F08BE08093910020914B123091DC0C05
:103CF00089EC91E0389FF001399FF00D1124EA55CD
:103D0000F14F8581968102C0969587952A95E2F7B5
:103D100080FF04C0129881E080935A0420914B12D6
:103D20008091DC0CC9ECD1E08C9FF0018D9FF00DEF
:103D30001124EA55F14F878D90A102C09695879581
:103D40002A95E2F780FF20C00E94520DE0914812B0
:103D50002091DC0C2C9FC0012D9F900D11248A55C1
:103D6000914FE80FF92FF11DEB5BFE4F40E56081AD
:103D7000809152120E948D0D81E080938804809181
:103D800048128F5F80934812809148129091DC0C0A
:103D900029EC31E0929FF001939FF00D1124E55939
:103DA000FF4E9081981710F4109248128091F901FB
:103DB0009091FA0101969093FA018093F901809114
:103DC000F9019091FA014091DC0C29EC31E0429F1D
:103DD000F001439FF00D1124EA55F14F208128177F
:103DE00019063CF5C1E0C0933B12C0939A041092AF
:103DF000FA011092F9018091D90C8823D1F08091B9
:103E0000F6019091F7010297A1F41092D90C83E08A
:103E100080939801109294040E94520D8091DC0CC2
:103E20008C278093DC0C0E94E3140E9472130E9482
:103E30004E1580914C128F5F80934C1280914C12E2
:103E4000803610F010924C12DF91CF91089580913E
:103E50004C128370823009F0FACD119810926104EF
:103E6000F6CD90914B1280913C12291302C0811122
:103E70000FC090914B12992371F080913C128823CE
:103E800081F08091F9019091FA0180934B1265CEF7
:103E900010923C12F2CF8111F0CF81E080933C125E
:103EA000ECCF8091F9019091FA01281B20934B12DD
:103EB00054CE20E130E040E050E060E070E0CB0123
:103EC0000E94894B60934B1248CEE901C062B1CE8B
:103ED00037FFAFCEFBCF22E030E03093AD0C209324
:103EE000AC0CD8CE37FDD6CE1092AD0C1092AC0CE7
:103EF000D1CE1F920F920FB60F9211240BB60F92D4
:103F00002F933F934F935F936F937F938F939F93E1
:103F1000AF93BF93EF93FF930E94E41CFF91EF9147
:103F2000BF91AF919F918F917F916F915F914F91D1
:103F30003F912F910F900BBE0F900FBE0F901F90CF
:103F40001895119A0E94E41C0E94E41C0E94E41C33
:103F50000E94E41C11980895CF92EF920F93E2E92A
:103F6000F4E080E580831182E0E9F4E0808311824F
:103F700087E1C82E96E1E92E05E124E143E162E103
:103F80008AE294E00E94EC450F91EF90CF90089563
:103F9000CF92DF92EF92FF926B017C0160E5C1143A
:103FA000D10481E0E806F10408F064E583E397E1D9
:103FB0000E945B4499278F2D7E2D6D2D83E397E121
:103FC0000E94E5436C2D83E397E1FF90EF90DF9033
:103FD000CF900C94E5432F923F924F925F926F9255
:103FE0007F928F929F92AF92BF92CF92DF92EF9289
:103FF000FF921F93CF93DF9300D000D0CDB7DEB7F1
:10400000182F282F30E0A0ECB1E00E94874C2B0144
:104010003C010E94C81FF12CE12C2091DC0CF7011F
:10402000EE0FFF1F49EC51E0249FC001259F900D2A
:104030001124E80FF91FEA55F14F6581D68083E31B
:1040400097E10E94E5436D2D83E397E10E94E543EC
:104050005FEFE51AF50A80E1E816F104F1F68091C8
:10406000DC0CA9ECB1E08A9FF0018B9FF00D1124CC
:10407000EA55F14F608183E397E10E94E543809127
:10408000DC0C29EC31E0829FF001839FF00D1124BC
:10409000EA55F14F618183E397E10E94E543809106
:1040A000DC0C49EC51E0849FF001859FF00D112458
:1040B000EA55F14F638183E397E10E94E5438091E4
:1040C000DC0CA9ECB1E08A9FF0018B9FF00D11246C
:1040D000EA55F14F648183E397E10E94E5438091C3
:1040E000DC0C29EC31E0829FF001839FF00D11245C
:1040F000E559FF4E608183E397E10E94E54380919B
:10410000DC0C49EC51E0849FF001859FF00D1124F7
:10411000E459FF4E608183E397E10E94E54380917B
:10412000DC0CA9ECB1E08A9FF0018B9FF00D11240B
:10413000E359FF4E608183E397E10E94E54380915C
:10414000DC0C29EC31E0829FF001839FF00D1124FB
:10415000E259FF4E608183E397E10E94E54348E125
:1041600050E05A83498360E083E397E10E94E5438E
:1041700089819A8101979A838983892BA1F783E3A7
:1041800097E10E94784465E070E080E090E00E9452
:10419000B546212F30E0A7E0B0E00E94874C6B01CC
:1041A0007C01812C912C5401A3019201205C3F4F92
:1041B0004F4F5F4F29833A834B835C838EEF94E1AB
:1041C0000E94804369817A818B819C81680D791D71
:1041D0008A1D9B1D0E94C81F2401350110E4809197
:1041E000DC0C49EC51E0849FF001859FF00D112417
:1041F000EA55F14FE40DF51DEB5BFE4F608183E363
:1042000097E10E94E54311505FEF451A550A650A90
:10421000750A1111E4CF83E397E10E94784465E0C9
:1042200070E080E090E00E94B54680E4880E911C2A
:10423000A11CB11C90E889169104A104B10409F0F5
:10424000BDCFA3E0CA0ED11CE11CF11C1601270151
:1042500096E0220C331C441C551C9A95D1F7F12C86
:10426000E12C8EEF94E10E948043C201B1010E94D3
:10427000C81F470114E0B12CA12C340184E0660C66
:10428000771C8A95E1F78091DC0C29EC31E0829F64
:10429000F001839FF00D1124E60DF71DEA0DFB1DC3
:1042A000E551F14F608183E397E10E94E5433FEFE1
:1042B000A31AB30A40E1A416B10429F711505FEF25
:1042C000851A950A1111D7CF83E397E10E947844AC
:1042D00065E070E080E090E00E94B54680E4280E42
:1042E000311C411C511C94E0E90EF11CA0E1EA16BE
:1042F000F10409F0B6CF0F900F900F900F90DF915F
:10430000CF911F91FF90EF90DF90CF90BF90AF9033
:104310009F908F907F906F905F904F903F902F90E5
:1043200008954F925F926F927F928F929F92AF9279
:10433000BF92CF92DF92EF92FF921F93CF93DF93C2
:1043400090919D0422E034E0929FF001939FF00D44
:104350001124EB55FB4F20819181DF01BC5F2C9331
:10436000EF5FFB4F908390E0B0E0A0E06C017D0137
:104370008AE0CC0CDD1CEE1CFF1C8A95D1F7812C49
:10438000912C540180EED80EE11CF11CC2E0D4E067
:10439000C701B601680D791D8A1D9B1D0E94C81FAB
:1043A0002401350110E480919D048C9FF0018D9FC4
:1043B000F00D1124EB55FB4FE40DF51D628183E3F5
:1043C00097E10E94E54311508FEF481A580A680A96
:1043D000780A1111E8CF83E397E10E94784465E001
:1043E00070E080E090E00E94B54680E4880E911C69
:1043F000A11CB11C811484E09806A104B10441F60B
:10440000DF91CF911F91FF90EF90DF90CF90BF9001
:10441000AF909F908F907F906F905F904F90089596
:10442000CF93DF9360E070E281E090E00E94C81FCC
:10443000CDE4D2E1698183E397E10E94E543688599
:1044400083E397E10E94E5436B8183E397E10E9458
:10445000E5436C8183E397E10E94E543688183E350
:1044600097E10E94E5436E8583E397E10E94E5436F
:104470006D8183E397E10E94E54383E397E10E9426
:10448000784465E070E080E090E0DF91CF910C949B
:10449000B54680914F12882321F00E94821C109211
:1044A0004F1280915A12882351F08091FC12882378
:1044B00031F00E94102210925A120E94E908809155
:1044C0005912811102C010925A120895BF92CF92D0
:1044D000DF92EF92FF920F931F93CF93DF93B62E4D
:1044E000282F30E0A0ECB1E00E94874CD0E0C0E083
:1044F0000B2D10E06B017C0120ECC20E21E0D21EDE
:10450000E11CF11C0C171D07F4F06B5D7F4F8F4F02
:104510009F4F0E94C81F6C2F83E397E10E94E543E1
:104520006B2D83E397E10E94E54383E397E10E94CB
:10453000784465E070E080E090E00E94B546219606
:10454000C701B601D7CFDF91CF911F910F91FF9097
:10455000EF90DF90CF90BF900895CF92DF92EF92CF
:10456000FF920F931F93CF93DF93062F282F30E0F6
:10457000A0ECB1E00E94874CD0E0C0E010E06B01FD
:104580007C0120ECC20E21E0D21EE11CF11C0C17B4
:104590001D07F4F06B5D7F4F8F4F9F4F0E94C81F28
:1045A00060E083E397E10E94E54360E083E397E105
:1045B0000E94E54383E397E10E94784465E070E060
:1045C00080E090E00E94B5462196C701B601D7CFA2
:1045D000DF91CF911F910F91FF90EF90DF90CF90DF
:1045E00008953F924F925F926F927F928F929F9227
:1045F000AF92BF92CF92DF92EF92FF920F931F93F1
:10460000CF93DF9340ECC42ED12CE12CF12C10E0A1
:10461000412C512C32014394C701B601605C7109F1
:10462000810991090E94C81FC0E160E083E397E11E
:104630000E94E54360E083E397E10E94E543C150B7
:10464000A1F76FE083E397E10E94E54368E183E32C
:1046500097E10E94E54361E083E397E10E94E5432F
:1046600060E083E397E10E94E54360E083E397E144
:104670000E94E54360E083E397E10E94E54360E048
:1046800083E397E10E94E54360E083E397E10E94C2
:10469000E54383E397E10E94784465E070E080E0C1
:1046A00090E00E94B5464601570120E8821A910821
:1046B000A108B108C2E0D0E0C501B4010E94C81F42
:1046C00000E460E083E397E10E94E5430150C9F70D
:1046D00083E397E10E94784465E070E080E090E039
:1046E0000E94B54630E4830E911CA11CB11C219799
:1046F00009F0DBC046015701C4E0D0E0C501B401B8
:104700000E94C81F04E030E1332E60E083E397E1AC
:104710000E94E5433A943110F8CF0150A1F783E3AA
:1047200097E10E94784465E070E080E090E00E94AC
:10473000B546219740E4840E911CA11CB11C209722
:10474000E9F6812F869586958695A301920104C08E
:10475000220F331F441F551F8A95D2F7C90120919C
:10476000220430912304822B932B90932304809373
:10477000220440E070E060E00E9460061F5F30ECC1
:10478000C30E31E0D31EE11CF11C40ECC41640EE18
:10479000D406E104F10409F03FCFD0E0C0E0C12C21
:1047A00090EED92EE12CF12C412C512C3201439466
:1047B0004601570110E000E0C501B4010E94C81F86
:1047C00080E4382E60E083E397E10E94E5433A9469
:1047D0003110F8CF83E397E10E94784465E070E000
:1047E00080E090E00E94B5460F5F1F4F50E4850EB9
:1047F000911CA11CB11C00311105F1F6D301C201BD
:104800000C2E04C0880F991FAA1FBB1F0A94D2F751
:104810002091200430912104822B932B909321042A
:104820008093200440E070E060E00E9460062196E2
:1048300034E0D30EE11CF11CC031D10509F0B8CF32
:1048400060E070E281E090E00E94C81F60E083E3D6
:1048500097E10E94E54368E783E397E10E94E5431F
:1048600061E083E397E10E94E54361E083E397E140
:104870000E94E54383E397E10E94784465E070E09D
:1048800080E090E0DF91CF911F910F91FF90EF902A
:10489000DF90CF90BF90AF909F908F907F906F9060
:1048A0005F904F903F900C94B546C1E0D0E004CFAC
:1048B0004F925F926F927F928F929F92AF92BF9230
:1048C000CF92DF92EF92FF920F931F93CF93DF93DC
:1048D00000D000D0CDB7DEB7082F282F30E0A0ECF5
:1048E000B1E00E94874C2B013C010E94C81F83E36A
:1048F00097E10E94784440E450E060E570E083E393
:1049000097E10E945844D12CC12C11E083E397E138
:104910000E94C243B82E83E397E10E94C243909164
:10492000DC0C9127F601EE0FFF1F49EC51E0949F3C
:104930009001959F300D1124E20FF31FEA55F14FBE
:10494000F82EE12CC7018B29968385835FEFC51A6A
:10495000D50A80E1C816D104C9F683E397E10E9425
:10496000C2439091DC0C9127A9ECB1E09A9FF00131
:104970009B9FF00D1124EA55F14F808383E397E16B
:104980000E94C2439091DC0C912729EC31E0929F68
:10499000F001939FF00D1124EA55F14F818383E3D9
:1049A00097E10E94C2439091DC0C912749EC51E0C1
:1049B000949FF001959FF00D1124EA55F14F8383E8
:1049C0008093D70C83E397E10E94C2439091DC0C63
:1049D0009127A9ECB1E09A9FF0019B9FF00D112463
:1049E000EA55F14F84838093D60C83E397E10E94CC
:1049F000C2439091DC0C912729EC31E0929FF001A9
:104A0000939FF00D1124E559FF4E808383E397E1D6
:104A10000E94C2439091DC0C912749EC51E0949F95
:104A2000F001959FF00D1124E459FF4E808383E33C
:104A300097E10E94C2439091DC0C9127A9ECB1E070
:104A40009A9FF0019B9FF00D1124E359FF4E808344
:104A500083E397E10E94C2439091DC0C192729EC73
:104A600031E0129FF001139FF00D1124E259FF4E27
:104A7000808348E150E05A83498383E397E10E94B1
:104A8000C24389819A8101979A838983892BA9F7E7
:104A9000202F30E0A7E0B0E00E94874C6B017C0142
:104AA000812C912C5401A3019201205C3F4F4F4F68
:104AB0005F4F29833A834B835C8301E08EEF94E15F
:104AC0000E94804369817A818B819C81680D791D68
:104AD0008A1D9B1D0E94C81F83E397E10E947844B2
:104AE00040E450E060E570E083E397E10E945844C1
:104AF0002401350110E483E397E10E94C2439091C1
:104B0000DC0C902749EC51E0949FF001959FF00D4B
:104B10001124EA55F14FE40DF51DEB5BFE4F808348
:104B200011505FEF451A550A650A750A1111E3CF56
:104B300080E4880E911CA11CB11C90E88916910498
:104B4000A104B10409F0BACFA3E0CA0ED11CE11C44
:104B5000F11C2601370126E0440C551C661C771C0D
:104B60002A95D1F71A821982CC24C39439ECA32E4A
:104B7000BB24B3948EEF94E10E948043C301B20141
:104B80000E94C81F83E397E10E94784440E450E00C
:104B900060E570E083E397E10E945844E980FA8081
:104BA00094E0D92E10E000E0470184E0880C991CC5
:104BB0008A95E1F783E397E10E94C2439091DC0C70
:104BC0009C259A9DF0019B9DF00D1124E80DF91D87
:104BD000E00FF11FE551F14F80830F5F1F4F003150
:104BE000110541F7DA94BFEFEB1AFB0AD110DACFC7
:104BF00020E4420E511C611C711C49815A814C5F9A
:104C00005F4F5A8349834031510509F0B3CF0F906C
:104C10000F900F900F90DF91CF911F910F91FF9008
:104C2000EF90DF90CF90BF90AF909F908F907F904C
:104C30006F905F904F9008954F925F926F927F9226
:104C40008F929F92AF92BF92CF92DF92EF92FF929C
:104C50001F93CF93DF9390E0B0E0A0E06C017D0163
:104C60008AE0CC0CDD1CEE1CFF1C8A95D1F780EE8F
:104C7000D80EE11CF11C812C912C5401C2E0D4E02F
:104C8000C701B6010E94C81F83E397E10E947844E0
:104C900040E450E064E570E0C114D10481E0E8062E
:104CA000F10410F460E570E083E397E10E9458445A
:104CB0002401350110E083E397E10E94C243909103
:104CC0009D049C9FF0019D9FF00D1124EB55FB4F1F
:104CD000DF01A40DB51D12968C931F5F8FEF481A4C
:104CE000580A680A780A103431F780E4880E911C5B
:104CF000A11CB11C80E4C80ED11CE11CF11C811464
:104D000084E09806A104B10409F0BACFDF01AF5FD7
:104D1000BB4F8C9111979C91892798278927918364
:104D20008083DF91CF911F91FF90EF90DF90CF9024
:104D3000BF90AF909F908F907F906F905F904F90BB
:104D4000089560E070E281E090E00E94C81F83E374
:104D500097E10E94784440E450E064E570E083E32A
:104D600097E10E94584483E397E10E94C243992748
:104D70008330910514F082E090E080934E1283E33B
:104D800097E10E94C24399278B3F910510F08AEF6B
:104D900090E08E31910510F48EE190E090935612E0
:104DA0008093551283E397E10E94C2438823C9F19F
:104DB00099278131910514F080E190E080935012A1
:104DC00083E397E10E94C243882371F199278131DF
:104DD000910514F080E190E08093511283E397E114
:104DE0000E94C24391E0811101C090E090934D1266
:104DF00083E397E10E94C24391E0811101C090E0FA
:104E000090935B1283E397E10E94C243882379F079
:104E100099278131910514F080E190E0809352123E
:104E2000089581E090E0CACF81E090E0D5CF81E0A5
:104E300090E0F4CFCF93DF930E94A12610924C1202
:104E40001092FA011092F901CDE4D2E11B861C8682
:104E500080E00E942B47BC01990F880B990B0E94A0
:104E6000674B1A86888599859F838E830E94821C52
:104E70001A82DF91CF9108950F931F93462F282F09
:104E800030E0A0ECB1E00E94874C8B019C01842FA4
:104E900090E0B0E0A0E08596A11DB11DBC01CD0160
:104EA000600F711F821F931F0E94C81F83E397E149
:104EB0000E94784441E050E060E570E083E397E1D0
:104EC0000E94584483E397E10E94C2431F910F91CF
:104ED00008952F923F924F925F926F927F928F929E
:104EE0009F92AF92BF92CF92DF92EF92FF920F9379
:104EF0001F93CF93DF9381E00E94990190938712D3
:104F00008093861280914712882349F0809159122C
:104F1000882329F01092591281E0809388018091B2
:104F2000F6019091F701059711F01092C812809147
:104F30005912811102C0109258128091491388238E
:104F400059F0809189048F5F843008F0F1C080931C
:104F5000890481E08093880180915F13811104C0EE
:104F600080918704882301F1D1E0D09347121092F9
:104F7000F80110924C121092FA011092F90110925D
:104F80004A12D0933C12109257131092381210927A
:104F9000481210921D026AEF70E08EEF94E10E94B9
:104FA0004A40109AD093620480915413882321F0D0
:104FB00080918A12882341F080918604811104C077
:104FC000809185048823A1F00E94DB0D80918604E6
:104FD000882309F4B0C010925713809157138F5F44
:104FE00080935713813009F4AFC0823009F4BAC0FE
:104FF00020919912309189129091A41280912813D6
:10500000332309F4C2C0222369F021E020938801F0
:1050100021E030E03093F7012093F60110929504DF
:1050200010925912992369F091E09093880123E03E
:1050300030E03093F7012093F6011092591210924C
:105040009C04882379F084E090E09093F7018093AA
:10505000F60181E080938801109295041092591214
:1050600010929C048091BA12882321F08091421200
:105070000E94F6138091C512882339F08091421264
:105080000E946C1481E08093DB0C809112138823C2
:10509000B9F080914712811113C081E080935912B9
:1050A000809158128F5F8093581210928904833038
:1050B00020F0109258121092591281E080938801CA
:1050C0008091F6019091F7010397029708F012C3BF
:1050D0008091861290918712009711F41092881295
:1050E00020918A12222309F403C1892B09F400C1FB
:1050F00081E080930204109295040E944A0480315A
:1051000008F0E5C0E82FF0E0E857F74D0C947E4C2E
:1051100046294629502950295229522954295429CF
:105120005629562958295C295E295E29E72CE52C49
:10513000109289040ECF80918504882309F44DCF05
:1051400081E08093571349CF8093F8011092471262
:105150006CEF70E08EEF94E10E944A40109810923C
:10516000620446CF1092F801D1E0D093471210921A
:10517000571310924C126BEF70E08EEF94E10E9487
:105180004A40109AD093620433CF222359F01092F0
:10519000F7011092F60121E0209388011092950406
:1051A000109259129923B9F02091F6013091F7012C
:1051B0002330310509F044C022E030E03093F7019C
:1051C0002093F60191E0909388011092950410923B
:1051D000591210929C0481110E94AD1580911D13EB
:1051E00081110E94881680913E13882349F0809196
:1051F00041138F5F80934113813029F1823031F167
:105200008091C512882349F08091C8128F5F8093E6
:10521000C812813009F1823071F18091F6019091CC
:10522000F701059711F01092C8128091591281115F
:1052300002C0109258128091131381113ECF40CFBB
:1052400023E030E0BBCF0E943401DACF80E00E943F
:105250008F0410924113D4CF8091F6019091F70101
:10526000909346128093451285E090E09093F70169
:105270008093F601D2CF809145129091461290937F
:10528000F7018093F6011092C812C7CF88E080938F
:10529000F5018091881281111AC01092441217C032
:1052A00089E0F5CF8AE0F3CF8BE0F1CF82E0EFCF5A
:1052B00083E08093F501F1CF84E0FBCF109244129C
:1052C00080918812811103C08EE08093F501809156
:1052D0008612909187128033910509F486C308F0F5
:1052E00078C38330910509F480C30C9709F47DC31A
:1052F00080910204882349F08091B012882329F01C
:1053000081E0809388011092020480918A128823A0
:1053100099F08091FC12882331F08CE08093F501A4
:1053200081E08093880180915413882329F01092A2
:10533000F50181E08093880180918912882351F0E2
:1053400080913E13882331F08DE08093F50181E058
:105350008093880160918E1280918D12882309F4C8
:105360007AC080919504811176C08091F601909168
:10537000F701049709F46FC080914712882309F45C
:105380006AC04091B00C5091B10C662321F050934B
:10539000AF0C4093AE0C7091F501272F30E081E007
:1053A00090E0072E02C0880F991F0A94E2F7842B21
:1053B000952B9093B10C8093B00C40914B1250916F
:1053C000DC0CF901EE0FFF1FA9ECB1E05A9FC00100
:1053D0005B9F900D1124E80FF91FEA55F14FC12C86
:1053E000D12C7601C39404C0CC0CDD1CEE1CFF1C38
:1053F0004A95D2F7C094D094E094F09445815681B8
:10540000C422D522D682C582E0914B12A901F4E0D4
:10541000440F551FFA95E1F7480F591F4A55514F50
:10542000E40FF52FF11DEB5BFF4F27563E4FD901DF
:105430002C9120837E3061F4E0914B128A55914F7C
:10544000E80FF92FF11DEB5DFE4F8091AE018083D7
:1054500081E08093DB0C80918F12882341F0809152
:10546000AE0C9091AF0C9093B10C8093B00C66236E
:1054700009F471C08091950481116DC08091F6018D
:105480009091F701049709F466C080914712811149
:1054900062C08091DC0C90E029EC31E0829FF00149
:1054A000839FF00D929FF00D112430E020E0D90190
:1054B000AA0FBB1FAE0FBF1FAA55B14F16961C9265
:1054C0001E9215972F5F3F4F2031310581F7E090F5
:1054D000A101F090A2010091A3011091A401D0912B
:1054E0009B0170919C0160919D0150919F014091A1
:1054F000A001E55FF04F20E130E0DF01A05ABF4F8F
:10550000EC925096FC9250960C9350961C93D1932B
:105510007787678F57AFDF01A15BBF4F4C93215057
:10552000310959F729EC31E0829FF001839FF00D9A
:10553000929FF00D1124EA55F14F81E0838314828C
:105540009FE0908398E1918393E0909398018093FA
:10555000DB0C8093880180910713811104C0809136
:105560000813882319F081E0809388018091061345
:10557000882309F443C08091861290918712892B69
:10558000E9F10E944A04873008F03AC20E944A04B6
:105590008F5F9091DC0C09EC11E0909FF001919FDE
:1055A000F00D1124EA55F14F83836091D70C8617D3
:1055B00029F1685F40E08AE294E00E94374561EAA1
:1055C0008AE294E00E94954A8091DC0C809FF00171
:1055D000819FF00D1124EA55F14F63816093D70C40
:1055E000685F40E08AE294E00E9437456BED8AE212
:1055F00094E00E94954A81E08093DB0C8091331304
:105600008823F1F08091950481111AC081E0809384
:1056100088018093DB0C809136138F5F843009F40E
:1056200022C28093361380913613813009F42CC244
:1056300008F41CC2823009F434C2833009F43EC23B
:105640008091E5128823E1F0809186129091871273
:10565000892BB1F00091DC0C10E00E944A0429EC87
:1056600031E0029FF001039FF00D129FF00D112415
:10567000EA55F14F808381E0809388018093DB0CB1
:105680008091F6019091F7018330910509F0D5C220
:105690008091B0128111109288128091E5128111CF
:1056A00081C080918A1281117DC080919504811101
:1056B00079C080910613811175C0809147128823AB
:1056C00009F409C24091DC0CC091F501D0E0CC0F87
:1056D000DD1F29EC31E0429FC001439F900D112452
:1056E000C80FD91FCA55D14F8D819E810E940702D4
:1056F0009E838D838091F6019091F701029709F0C6
:1057000051C08091B012811110928812809186123E
:1057100090918712892B19F18091B912882309F48D
:1057200014C70E944A04873008F40CC787E08093AE
:10573000431290914212809143128295807F292FCB
:105740002F70820F809341121092D20C981739F06B
:1057500080914712811103C081E08093DA0C80911F
:105760008912882361F080911D13882341F0809174
:105770005712833008F04BC78F5F80935712809188
:105780009A04882379F08091D20C81110BC09091FA
:10579000421280914112981719F081E08093DA0C3F
:1057A00010929A048091F6019091F701019711F0FF
:1057B0000C94FD338091861290918712892BE9F029
:1057C0008091B912882309F428C70E944A048730BF
:1057D00008F420C787E08093431290914212809191
:1057E00043128295807F292F2F70820F8093411260
:1057F000981719F081E08093DA0C3091DB12332393
:1058000061F18091A1049091A20401978130D4E0CC
:105810009D0708F01EC79093A2048093A1042091D5
:105820009D0482E094E0289FF001299FF00D11244F
:10583000EB55FB4F8091A1049091A204E80FF91F52
:1058400082818093411290914212891719F081E070
:105850008093DA0C81E0809388012091D01222237A
:1058600061F18091A1049091A20401968130E4E05D
:105870009E0708F0F3C69093A2048093A104409180
:105880009D0482E094E0489FF001499FF00D1124AF
:10589000EB55FB4F8091A1049091A204E80FF91FF2
:1058A00082818093411290914212891719F081E010
:1058B0008093DA0C81E08093880180918E12882396
:1058C000E1F01092A2041092A10440919D0482E0A4
:1058D00094E0489FF001499FF00D1124EB55FB4FD8
:1058E00082818093411290914212891719F081E0D0
:1058F0008093DA0C81E0809388018091891288235B
:1059000009F425C78091F012882301F140919D048C
:1059100082E094E0489FF001499FF00D1124EB557F
:10592000FB4F808191819093A2048093A104E80FA2
:10593000F91F82818093411290914212891719F0C8
:1059400081E08093DA0C81E080938801332309F4AD
:10595000AAC680919D0490E042E054E0849FF0014B
:10596000859FF00D949FF00D1124DF01AB55BB4FC7
:105970006D917C916115710509F495C6C091A104E2
:10598000D091A204DB011197AE014F5F5F4FCA17A0
:10599000DB0708F0B8C6EC0FFD1FEB55FB4FCEEF51
:1059A000DBEF8C9F80018D9F100D9C9F100D1124AB
:1059B0003196EF01C55AD440C00FD11FC617D70783
:1059C00008F04FC633813283F3CF86E072CC87E094
:1059D00070CC811523E0920741F0811530E39307E5
:1059E00051F0803C910509F083CC81E08093441212
:1059F000809388127DCC8FE08093F50181E0F8CF11
:105A00000E944A04883008F4F9CD0E944A04885064
:105A10009091DC0C09EC11E0909FF001919FF00D4A
:105A20001124EA55F14F84836091D60C861709F44E
:105A3000E5CD685F41E08AE294E00E94374561EA83
:105A40008AE294E00E94954A8091DC0C809FF001EC
:105A5000819FF00D1124EA55F14F64816093D60CBB
:105A6000685F41E0BFCD10923613DDCD2091DC0C94
:105A700089EC91E0289FF001299FF00D1124EA554F
:105A8000F14F88E18183DCCD2091DC0C89EC91E041
:105A9000289FF001299FF00D1124EA55F14F8CE069
:105AA000F1CF2091DC0C89EC91E0289FF001299F37
:105AB000F00D1124EA55F14F80E2E4CF2091DC0C87
:105AC00089EC91E0289FF001299FF00D1124EA55FF
:105AD000F14F80E1D7CF8091AE12882309F462CED6
